:020000041000EA
:1000000000B5324B212058609868022188439860DF
:10001000D860186158612E4B002199600221596106
:100020000121F02299502B49196001219960352056
:1000300000F044F80222904214D00621196600F024
:1000400034F8196E01211966002018661A6600F04E
:100050002CF8196E196E196E052000F02FF8012189
:100060000842F9D1002199601B49196000215960AB
:100070001A491B48016001219960EB211966A021F2
:10008000196600F012F800219960164914480160C1
:100090000121996001BC002800D000471248134993
:1000A000086003C880F30888084703B5996A0420EC
:1000B0000142FBD001200142F8D103BD02B5186610
:1000C0001866FFF7F2FF186E186E02BD00000240BE
:1000D000000000180000070000035F00212200005C
:1000E000F4000018222000A00001001008ED00E03C
:1000F00000000000000000000000000074B24E7A12
:1001000000200420F7010010C3010010C5010010F9
:10011000C1010010C1010010C1010010C101001097
:10012000C1010010C1010010C1010010C701001081
:10013000C1010010C1010010C9010010CB01001065
:10014000CD010010CD010010CD010010CD01001037
:10015000CD010010CD010010CD010010CD01001027
:10016000CD010010CD010010CD010010CD01001017
:10017000CD010010CD010010CD010010CD01001007
:10018000CD010010CD010010CD010010CD010010F7
:10019000CD010010CD010010CD010010CD010010E7
:1001A000CD010010CD010010CD010010CD010010D7
:1001B000CD010010CD010010CD010010CD010010C7
:1001C00000BE00BE00BE00BE00BE00BE00F04BF888
:1001D000103800BEF2EB8871187800103C780010DF
:1001E0003402001090A31AE700202149086006C8D5
:1001F00081F3088810471F48006800282FD10DA4FC
:100200000ECC002902D000F012F8F9E71A491B4A77
:10021000002000E001C19142FCD1194988471949E9
:1002200088471949884700BEFDE701C901C29A42C3
:10023000FBD370473C780010C000002080020020F3
:10024000FC7900100000042000000420FC7900105C
:1002500000100420001004200000000070470B482C
:1002600004F002FF0047EFF30580C0B270470000C2
:1002700008ED00E0000000D08002002054060020BD
:1002800091360010B92100104D360010575600006D
:1002900006005250ABB360538877001006005250EE
:1002A000861C030298770010060052505422A29D2B
:1002B000A477001005005250DE65F468FC79001048
:1002C000F8B5C04610B5064C2378002B07D1054B76
:1002D000002B02D0044800E000BF0123237010BDB2
:1002E0008003002000000000D0680010044B10B50F
:1002F000002B03D00349044800E000BF10BDC046F6
:100300000000000084030020D068001030B583B0E6
:100310000C00002313E06B46DA1D1570002106E087
:1003200083699B06FCD413780360013101320029F4
:10033000F6D023780D3B5A425341DBB20134257885
:10034000002D29D0002BE6D1144B984213D0002366
:100350005B00134A9B5EAB420FD06B46DA1D1570F3
:1003600000210029E5D183699B06FCD41378036042
:1003700001310132F5E70123EAE76B46DA1D0D236F
:10038000137000210029E8D183699B06FCD41378FF
:10039000036001310132F5E703B030BD0080034056
:1003A00044060020F0B583B0CDE0864B1B68037097
:1003B00001310130002904D1824B9B69DB06FBD45B
:1003C000F3E76B46D97900237F4D33E06B46D81DA8
:1003D0000670140004E006787A4B1E600134013088
:1003E000002C21D1774B9B699B06FBD4F3E76B462E
:1003F000D81D0D230370140004E00778714B1F60B3
:1004000001340130002C1FD16E4B9B699B06FBD43D
:10041000F3E76C4CA469A406FBD41E78694C2660F3
:10042000013001330028F4D02B780D3B5842434172
:10043000DBB201352E78002E0BD0002BC6D1634BDA
:1004400000201B5EB342D2D06B4607331E701000F3
:10045000E8E75E4B00201B5E8B420FD06B46D81D39
:1004600001701400002C1BD1564B9B699B06FBD4DA
:100470000578544B1D6001340130F3E76B46D81DFD
:100480000D230370140004E005784E4B1D60013409
:100490000130002CE2D14B4B9B699B06FBD4F3E768
:1004A00000234B4D26E06B46D81D06701400002C2F
:1004B0001AD1444B9B699B06FBD40678414B1E60C6
:1004C00001340130F3E76B46D81D0D23037014008F
:1004D000002C19D13B4B9B699B06FBD40778394B09
:1004E0001F6001340130F3E72B780D3B5842434144
:1004F000DBB201352E78002E16D0002BD3D1334B32
:1005000000201B5EB342DED06B4607331E70100026
:100510000028E9D12B4CA469A406FBD41E78294CF1
:10052000266001300133F3E72A4B1B78002B1CD0E7
:10053000262913D0284803689A00D2185300036074
:1005400030395B1803601F4B9B6910210A001A4069
:10055000194235D111006B46D81D2BE71F4B0122E4
:100560001A701C4B00221A70EDE75039CBB2232BC6
:10057000E9D899001A4B5B589F461A4B01221A7012
:10058000E1E7184B02221A70DDE7164B03221A70BE
:10059000D9E7144B04221A70D5E7124B00221A70C7
:1005A000D1E7104B05221A70CDE70E4B06221A70C8
:1005B000C9E7084B01221A70074B00221A60C2E7F4
:1005C00003B0F0BD00400340D06800104406002096
:1005D000EC6900104C060020B401002050060020F9
:1005E000DC680010B0010020F0B5C64600B5061C5E
:1005F0000F0014001D0006AB1B889846080005F08C
:100600007EFC011C301C05F01EFC061C4346581BDA
:1006100005F07AFC311C05F036FC061CE01B05F0E9
:1006200073FC011C301C05F018FC041C280005F0AC
:100630006BFC211C05F00CFC05F0BAFC80B280BC00
:10064000B846F0BD30B585B06423584305F044F892
:10065000944A954B04F0CFFF0022944B04F0CBFF5B
:100660000022934B04F0C7FF05F04EF8050064210B
:1006700004F026FD303002AC20702E2363700A2176
:10068000280004F01DFD05000A2104F019FD30309A
:10069000A0700A21280004F013FD3031E1705623C8
:1006A00023710023834832E06B46DA1D1470002169
:1006B000002926D1804B9B699B06FBD414787E4B86
:1006C0001C6001310132F3E76B46DA1D0D23137014
:1006D000002104E01578784B1D60013101320029BA
:1006E0001FD1754B9B699B06FBD4F3E7724B9B694B
:1006F0009B06FBD41478704B1C6001310132002939
:10070000F4D003780D3B5A425341DBB201300478F8
:10071000002C0BD0002BC7D1684B00229B5EA3425C
:10072000D2D06B46DA1D14700021E8E7002364483C
:1007300033E06B46DA1D1470002104E014785E4B40
:100740001C6001310132002921D15B4B9B699B0662
:10075000FBD4F3E76B46DA1D0D231370002104E090
:100760001578554B1D600131013200291FD1524BC4
:100770009B699B06FBD4F3E74F4B9B699B06FBD41D
:1007800014784D4B1C60013101320029F4D00378FC
:100790000D3B5A425341DBB201300478002C0BD0A0
:1007A000002BC6D1454B00229B5EA342D2D06B46A4
:1007B000DA1D14700021E8E7002411E06B46DA1D11
:1007C0000D2313700021002913D13B4B9B699B061D
:1007D000FBD41078384B186001310132F3E7013453
:1007E000042C16D802AB1D5D344B00229B5EAB423D
:1007F000E4D06B46DA1D157000210029EFD12E4B95
:100800009B699B06FBD410782B4B18600131013299
:10081000F3E70023274833E06B46DA1D147000210C
:10082000002927D1244B9B699B06FBD41478224BCB
:100830001C6001310132F3E76B46DA1D0D231370A2
:10084000002108E01C4B9B699B06FBD415781A4BD2
:100850001D60013101320029F4D01BE01478164BE1
:100860001C6001310132002904D1134B9B699B06A6
:10087000FBD4F3E703780D3B5A425341DBB201301E
:100880000478002C0BD0002BC6D10C4B00229B5EB1
:10089000A342D1D06B46DA1D14700021E3E705B006
:1008A00030BDC0466666666666660A40000008405F
:1008B0000000303FEC690010004003404406002077
:1008C0006C69001010B596210F4C8901200001F0D1
:1008D00025FE0221012001F031FD0221002001F05E
:1008E0002DFD0A49142003F0E9F80121142003F03A
:1008F000D5F85023A363636B38221A400449802340
:100900005B010B431A6010BD00400340A5030010BB
:100910003440034010B505F069FF1F211C2001F091
:100920000DFD002200211C2001F020FD00211C20D3
:1009300001F036FD0F4B1A6880239B015340E022E3
:10094000D20113400C4A13601A2001F041FDD0245B
:1009500024068023DB0463621B2001F039FD802321
:100960001B056362192001F033FD80239B04636241
:1009700010BDC04600C0044000D00440F0B5C646DB
:1009800000B582B0D0231B06802212055A61642074
:1009900002F0CEFA734B04221A60734B1B68DB051E
:1009A000FBD5714B5C68A5B2D0231B0680221205D3
:1009B0009A612800FFF746FE00236C4833E06B463F
:1009C000DA1D1670002104E01678694B1E600131B3
:1009D0000132002921D1664B9B699B06FBD4F3E7CA
:1009E0006B46DA1D0D231370002108E0604B9B69F4
:1009F0009B06FBD417785E4B1F6001310132002942
:100A0000F4D01AE05A4B9B699B06FBD41678584BDE
:100A10001E60013101320029F4D003780D3B5A42A7
:100A20005341DBB201300678002E0BD0002BC6D12B
:100A3000504B00229B5EB342D2D06B46DA1D16703B
:100A40000021E8E7E4B24B4B00229B5EA3420FD0AB
:100A50006B46DA1D1470002100291BD1444B9B69A1
:100A60009B06FBD41078424B186001310132F3E74A
:100A70006B46DA1D0D231370002104E010783C4B07
:100A80001860013101320029E2D1394B9B699B0684
:100A9000FBD4F3E70023384826E06B46DA1D1470D8
:100AA000002100291AD1324B9B699B06FBD4147894
:100AB0002F4B1C6001310132F3E76B46DA1D0D2329
:100AC00013700021002919D1294B9B699B06FBD487
:100AD0001678274B1E6001310132F3E703780D3B96
:100AE0005A425341DBB201300478002C16D0002B5F
:100AF000D3D1204B00229B5EA342DED06B46DA1D91
:100B0000147000210029E9D1194B9B699B06FBD485
:100B10001478174B1C6001310132F3E7174B9D42EB
:100B200004D9012002B080BCB846F0BD002514E015
:100B3000D02424068023DB04984663618027BF0409
:100B40006761FA267600300002F0F2F94346A361AD
:100B5000A761300002F0ECF90135022DE8DD00203C
:100B6000E0E7C04600E0044000C00440D068001048
:100B70000040034044060020EC690010D90A000040
:100B8000F0B583B00400026A038AD31A63330ADB28
:100B9000038AD21A632A06DCFE218905406905F022
:100BA00052F9606105E0FC218905606905F050F9A2
:100BB00060616669A06A05F0A7F9051C011C301C7C
:100BC00005F092F9002800D065616669606A05F059
:100BD0009BF9051C011C301C05F08CF9002800D085
:100BE0006561237E002B5DD1206A238A9BB29842E7
:100BF0005ADD656905F088F9291C05F024F905F02E
:100C0000A5F92062256A208A281A05F07DF966690F
:100C100080231B06F11805F06DF900280BD0208AFF
:100C2000281A05F071F9011C301C05F063F9002841
:100C300001D0238A2362237A002B43D0666823786D
:100C400001251D40278C96231B010093324BB422B3
:100C500000213248FFF7C8FCC71BBFB2C01980B2E1
:100C6000E76805F051F9391C05F0F2F805F0A0F934
:100C700080B2B3009B199B00294A94466344002D1F
:100C80001CD010229040002D1AD0264A19684840E6
:100C900010408022520113431860238A9BB2226ABB
:100CA0009A4236D003B0F0BD656905F02DF9291CD4
:100CB00005F0CEF805F04AF92062A3E72A00E1E743
:100CC000194AE3E76668237801251D40E768206A32
:100CD00005F01AF9391C05F0BBF805F069F980B286
:100CE000B3009B199B000E4A94466344002D0CD020
:100CF00010229040002D0AD00A4A1968484010403E
:100D00008022520113431860C7E72A00F1E7064A20
:100D1000F3E701232376C5E7260200000000B44272
:100D20000C0005400000FFFFFFFF0000F0B5DE46AD
:100D300057464E464546E0B5B1B0040004900791D1
:100D400008920993D4490B8803808B788370033011
:100D50000431032205F058FB1434270005230293C5
:100D6000029B002B00DA99E000233B720021F9601E
:100D70008120C0057861142291467A62103A934628
:100D8000BA62C64A92463A62012290463A763D00DD
:100D90002C351E002B72E96068614A466A625A4629
:100DA000AA6252462A6242462A763A005832130014
:100DB00042461A703A00593216701E708223FB6543
:100DC0001E3B3B665F3B7B6616AC2672E160606152
:100DD0004A4662625A46A2625246226242462276DF
:100DE000022323700421022001F0A8FA227852087D
:100DF00007231A40626093009B189B00A84A944600
:100E00006344A84A1A61626893009B189B0063447C
:100E1000A54A5A6026723B00200046C846C302001D
:100E200043CA43C343CA43C341CA41C30021E1602B
:100E30008120C0056061484660625846A062504605
:100E4000206240462076032323700421023001F003
:100E500075FA2278520807210A40626093009B18B5
:100E60009B008F498C4663448E4A1A6162689300E6
:100E70009B189B0063448C4A5A60002626722C23E0
:100E80004246E2540133E6542E222100280005F0A8
:100E9000BBFA6837029B013B029361E70023A12262
:100EA000920004998B54814A8B5403328B50043244
:100EB0008B5400278AE0DBB29B46079B9B5C9A46DB
:100EC000089B9B5C98469200099B995E02910232B6
:100ED0009B5E059316AB00221A720024A146DC60CB
:100EE0008124E405A4465C611420586204269E62B5
:100EF0006A49196201251D7634241A554C469C63B3
:100F000064461C6418655E65D96444241D55143418
:100F10001D5501341A55013C1A552A34DC651E3C16
:100F20001C665F3C5C660AAC22724B460D936346BE
:100F30000F93139014961291029804F0E5FF0D9010
:100F400025765346023BDBB20D2B52D92C220AA93F
:100F500016A805F059FA002308AA137400230D936C
:100F60008123DB050F9314231393103B14934B4BF6
:100F70001293059804F0C8FF0D90012308AA2021C0
:100F8000521813704346023BDBB20D2B4ED90AAB0D
:100F90002C22012199542C3100205854594699543F
:100FA00021AA13CB13C213CB13C213CB13C203CB8F
:100FB00003C21B88138068207843049B9C466044CE
:100FC0001430682216A905F01FFA01373A00052FE0
:100FD0004AD8F90F7818012303405B1A013B5942A4
:100FE0004B41DBB206930123032F00DD63E70023AF
:100FF00061E753462370D8B2042101F09FF92278AB
:10100000520807231A40626093009B189B00244AF1
:1010100094466344234A1A6163689A00D3189B007C
:101020006344214A5A60069B23728FE70AAC434609
:101030002370D8B21C3901F081F9227852080723B5
:101040001A400B9293009B189B00154A94466344E8
:10105000144A1A610B9B9A00D3189B006344124AEE
:101060005A60069B237292E70023049C032B0EDC3C
:10107000581C682211004143611850258D6053436C
:10108000E318363A5A677D329A670300EEE7002686
:10109000350031E032007FE0F0690010C305000048
:1010A00000000540204E0000D90700008502000026
:1010B000B84A196848401040802252011343186012
:1010C00001225923E254216B8B005B189B00B2492B
:1010D0008C46634419688A43802149010B431A6096
:1010E00027002C37E0692D23FB5C002B00D080E02B
:1010F000C82001F01DFF0135052D00D941E168260A
:101100006E431036049B9C466644341D626893000F
:101110009B189B00A04A944663441A68012191439E
:1011200080225201134319609C48E06196231B0101
:1011300000939B4BB4220021FFF756FA2082238AAA
:101140002362237A002B2CD06768337901261E4056
:10115000238C994696231B010093914BB4220021C6
:101160008E48FFF741FA4B46C31A9BB2C01880B2B3
:10117000E368994604F0C8FE494604F069FE04F0AD
:1011800017FF80B2BB00DB199B00864A944663447C
:10119000002E00D17EE710229040002E88D0824A97
:1011A00087E76768337901261E40E3689946206A1D
:1011B00004F0AAFE494604F04BFE04F0F9FE80B2AA
:1011C000BB00DB199B00774A94466344002E0CD089
:1011D00010229040002E0AD0734A196848401040EF
:1011E00080225201134318606AE73200F1E7694A2E
:1011F000F3E704F0ABFE04F06FFA00226B4B04F04F
:10120000CAF904F0B1FA041C002104F06DFE0028B4
:101210006BD16749201C04F036FE04F0F5FE04F0A3
:10122000D7FE02000B006348634904F0B4F904F0F0
:101230009BFA2C23FB5C002B5CD004F0C1FF5C49C3
:1012400004F00BFE211C04F0FEFDF861F86904F0C7
:10125000AFFEC4B2200004F052FEF861B42C00D9F5
:1012600046E7200004F04BFEF86196231B01009333
:101270004B4BB4220021FFF7B7F938823B8A3B621F
:101280003B7A002B56D07E683B7801241C403B8C77
:10129000984696231B010093414BB42200213F48FE
:1012A000FFF7A2F94346C31A9BB2C01880B2FF6889
:1012B00004F02AFE391C04F0CBFD04F079FE80B264
:1012C000B3009B199B00374A94466344002C2DD0F1
:1012D00010229040002C2BD0334A1968484010400F
:1012E000802252011343186002E780231B069C46AC
:1012F00064448EE704F064FF2D4904F0AEFD04F071
:1013000067FE02000B0000202C4904F044F9029013
:101310000391201C04F05CFE02000B00029803996C
:1013200004F042F904F020FAF8618FE72200D0E7D8
:10133000184AD2E77E683B7801241C40386AFF686F
:1013400004F0E2FD391C04F083FD04F031FE80B2AC
:10135000B3009B199B00134A94466344002C0CD0A5
:1013600010229040002C0AD00F4A196848401040C3
:101370008022520113431860BAE62200F1E7054AC1
:10138000F3E7049831B0F0BCBB46B246A946A0468C
:10139000F0BDC046FFFF0000000005400000B44261
:1013A000260200000C0005400000FFFF00805640B0
:1013B00021F98E3C333333333333FB3F00806640B7
:1013C000F0B5DE4657464E464546E0B583B00400CC
:1013D000072909D889007B4B5B589F460023A2222E
:1013E00092008350784A835403B0F0BCBB46B246A7
:1013F000A946A046F0BD0023052B05D8734AD15C51
:10140000E21891710133F7E76F4B0522E254033381
:10141000043AE250E8E7002304E06D4AD15CE218A8
:10142000917101330C2BF8D90123674AA35403327D
:10143000A350A3239B00E35C002B07D1052BD3D83B
:10144000624AD15CE21891710133F7E7A3239B0054
:101450000022E254C8E7002304E05E4AD15CE218AF
:10146000917101330C2BF8D9574B0222E25403330C
:10147000013AE2500433E35C002B07D1052BB3D8CB
:10148000524AD15CE21891710133F7E7A3239B0024
:101490000022E254A8E7002304E04F4AD15CE2189E
:1014A000917101330C2BF8D9474B0322E2540333DB
:1014B000023AE2500433E35C002B07D1052B93D8AA
:1014C000424AD15CE21891710133F7E7A3239B00F4
:1014D0000022E25488E7002304E0404AD15CE2188D
:1014E000917101330C2BF8D9374B0422E2540333AA
:1014F000033AE2500433E35C002B08D1052B00D9FA
:1015000072E7324AD15CE21891710133F6E7A32306
:101510009B000022E25467E70023022B05D8304AE3
:10152000D15CE21891710133F7E7A2239B000122FD
:10153000E250254B0532E2540027052F00D953E72E
:1015400068257D432B001033E31804339B46254B5D
:101550009946254E96231B019A4600934B46B4228A
:101560000021301CFFF740F85B461882DE61002343
:1015700098465B4642461A7663196D331A703835C1
:101580006519534600934B46B4320021301CFFF7D7
:101590002BF828836E62083543462B760137CCE75B
:1015A000094B0722C2540023022B05D80F4AD15CF5
:1015B000E21891710133F7E7A2239B000222E25067
:1015C00012E7C0468069001085020000346A0010EE
:1015D0004C6A0010F8690010086A00103C6A00109C
:1015E000306A0010260200000000B4425C6A00105D
:1015F000F0B5DE4657464E464546E0B587B0040096
:10160000A2239B00C358C3189B790F2B31D89B0092
:10161000C74AD3589F46C74BC15C052929D0073319
:10162000C35C002B25D0FFF7CBFE22E00027052F5F
:101630001AD868257D436619736FD8B210356519BD
:1016400004F05DFC804696231B010093BA4BB42244
:101650000021FEF7C9FFA88243462B6200232B77A7
:101660006D3633700137E2E7A2229200A3580133AE
:10167000A350A2239B00E3580C2B03D9A2239B0069
:101680000122E25007B0F0BCBB46B246A946A046D4
:10169000F0BD00252F00804634E080231B069C46C9
:1016A000644448E004F08CFDA44904F0D6FB04F047
:1016B0008FFC02000B000020A14903F06CFF029098
:1016C0000391201C04F084FC02000B000298039993
:1016D00003F06AFF04F048F8F061F06904F068FC78
:1016E000C0B204F00CFC041C96231B010093924B27
:1016F000B4220021FEF778FFA887AC642C350023C4
:101700002B760137052F34D868267E4310364644A1
:10171000351D3036E86904F019FC03F0DDFF0022C6
:10172000884B03F038FF04F01FF8041C002104F07C
:10173000DBFB0028B1D18149201C04F0A4FB04F09C
:1017400063FC04F045FC02000B007F487F4903F076
:1017500022FF04F009F82C23F35C002BA2D004F044
:101760002FFD764904F079FB211C04F06CFBF0613D
:10177000B3E74446A2229200A3580133A350A32307
:101780009B000122E25474E76A4BC35C0293023B64
:101790005A425341DBB2059300231F00022F46D863
:1017A000E65D731C68256B43E318187A6E433300BB
:1017B0001033E3180433984604F0A1FB81469623C6
:1017C0001B019B4600935C4BB4220021FEF70CFFEB
:1017D000434618824A46DA6100239A4643465246F7
:1017E0001A76A6196D36059B3370E319DB78029AD9
:1017F000961E721E9641F6B25D43631998465B6F62
:10180000D8B21035651904F07AFB81465B46009327
:10181000494BB4220021FEF7E7FEA8824B462B621B
:1018200053462B7743466D331E700137B6E7A2222D
:101830009200A3580133A3501BE7002780463C00C9
:101840002AE080231B069C46664452E004F0B8FC64
:101850003A4904F002FB04F0BBFB02000B0000203D
:10186000374903F098FE02900391301C04F0B0FB5E
:1018700002000B000298039903F096FE03F074FF38
:10188000E861E86904F094FBC6B2300004F037FB6D
:10189000E861B42E5CD90134052C00D9C7E0682575
:1018A0006543103545442E1D3000FFF769F930358A
:1018B000306A962604F028FBB423009300233201FB
:1018C0001D49FEF791FE04F01AFB2D23EB5C002B63
:1018D000E1D004F03BFB03F0FFFE0022194B03F0C4
:1018E0005AFE03F041FF061C002104F0FDFA002817
:1018F000A7D11249301C04F0C6FA04F085FB04F0AD
:1019000067FB02000B001048104903F044FE03F08F
:101910002BFF2C23EB5C002B98D004F051FC0749E3
:1019200004F09BFA311C04F08EFAE861A9E7C04686
:10193000A0690010850200002602000021F98E3CFB
:101940000080664000805640333333333333FB3FEF
:10195000300004F0D4FAE86196231B010093DC4BBD
:10196000B4220021FEF740FE28822B8A2B622B7ABC
:10197000002B35D06F682B7801261E402B8C9946A2
:1019800096231B010093D24BB4220021D148FEF7CD
:101990002BFE4B46C31A9BB2C01880B2ED6804F010
:1019A000B3FA291C04F054FA04F002FB80B2BB0025
:1019B000DB199B00C84A94466344002E0CD01022C9
:1019C0009040002E0AD0C54A196848401040802235
:1019D0005201134318605EE73200F1E7C04AF3E7B3
:1019E0006F682B7801261E40286AED6804F08CFA97
:1019F000291C04F02DFA04F0DBFA80B2BB00DB19DD
:101A00009B00B54A94466344002E0CD010229040AF
:101A1000002E0AD0B14A1968484010408022520175
:101A20001343186037E73200F1E7AD4AF3E7444665
:101A30000022052A0FD868235343E3182C331B7860
:101A4000002B09D068235343E31858331B78002B2D
:101A500002D00132EDE70123002B00D109E6A222DA
:101A60009200A3580133A35003E600273C0007006F
:101A700034E080231B064B44994649E004F0A0FB68
:101A8000984904F0EAF904F0A3FA02000B000020E0
:101A9000954903F080FD02900391484604F098FABE
:101AA00002000B000298039903F07EFD03F05CFE38
:101AB000E861E86904F07CFAC0B204F020FA051C81
:101AC00096231B010093824BB4220021FEF78CFD6C
:101AD000B087B5642C36002333760134022C35D818
:101AE0003B5D68255D4310357D192E1D3035F0694D
:101AF00004F02CFA03F0F0FD00227C4B03F04BFDC8
:101B000003F032FE8146002104F0EEF90028B0D146
:101B10007449484604F0B7F904F076FA04F058FA2C
:101B200002000B007248734903F035FD03F01CFE00
:101B30002C23EB5C002BA1D004F042FB694904F09C
:101B40008CF9494604F07FF9E861B2E73C00A22233
:101B50009200BB580133BB508BE5002504E03000F8
:101B6000FFF70EF80AE00135052D10D868236B4306
:101B70001033E3181E1D1B7F002BF0D04423F35CB1
:101B8000002BF0D130002C30FEF7FAFFEBE70022FB
:101B9000052A0FD868235343E3182C331B78002BF6
:101BA00009D068235343E31858331B78002B02D025
:101BB0000132EDE70123002B00D15AE5A222920069
:101BC000A3580133A35054E50027022F1AD8E31974
:101BD000DB7868255D436319986FC0B238356519A5
:101BE00004F08DF9061C96231B010093384BB42298
:101BF0000021FEF7F9FC28836E62083500232B765E
:101C00000137E2E7A2229200A3580133A35030E546
:101C1000394BC35C0293013B5A425341DBB20593FB
:101C2000002399464B46022B42D8E65C68256E435A
:101C3000A7197B6FD8B21036A61904F060F9804658
:101C400096231B019B460093214BB4220021FEF7F3
:101C5000CBFCB0824346336200239A4633776D371C
:101C6000059B3B704B46E318DA78029B5F1E7B1E98
:101C70009F41FFB2531C6B43E318187A55432E0063
:101C80001036A61904F03BF980465B460093104BD2
:101C9000B4220021FEF7A8FCB082434633625346CB
:101CA000337765196D352F7001339C46E144B9E7F0
:101CB000A2229200A3580133A350DAE400273C008B
:101CC00007004BE080231B064B44994661E0C04669
:101CD000260200000000B4420C0005400000FFFF97
:101CE000FFFF000021F98E3C0080664000805640D6
:101CF000333333333333FB3F8502000004F060FAA3
:101D0000E34904F0AAF804F063F902000B00002094
:101D1000E04903F040FC02900391484604F058F972
:101D200002000B000298039903F03EFC03F01CFD37
:101D3000E861E86904F03CF9C0B204F0E0F8051C81
:101D400096231B010093D44BB4220021FEF74CFCD8
:101D5000B087B5642C36002333760134022C36D894
:101D60003B19DB7868255D4310357D192E1D303514
:101D7000F06904F0EBF803F0AFFC0022C74B03F06E
:101D80000AFC03F0F1FC8146002104F0ADF80028C4
:101D900098D1BF49484604F076F804F035F904F0CC
:101DA00017F902000B00BE48BE4903F0F4FB03F034
:101DB000DBFC2C23EB5C002BA0D004F001FAB4492F
:101DC00004F04BF8494604F03EF8E861B1E73C0006
:101DD000A2229200BB580133BB504AE40027022FD5
:101DE00019D8E35D68255D436319986FC0B2383533
:101DF000651904F084F8061C96231B010093A64B7A
:101E0000B4220021FEF7F0FB28836E620835002320
:101E10002B760137E3E7A2229200A3580133A350A7
:101E200027E4A14BC75C043F7B427B41DBB2994670
:101E3000036FD8B204F063F8051C974E96231B017C
:101E4000984600933300B4220021FEF7CDFB230017
:101E5000A0842563143300251D766D234A46E25481
:101E60007B1E9F41FBB29A46D823E05C27007C375B
:101E700004F045F88346434600933300B422002122
:101E8000FEF7B2FB38825B46FB613D762300D5331B
:101E900052461A7068373B6ED8B204F030F8834669
:101EA000434600933300B4220021FEF79DFB3882A5
:101EB0005B46FB613D7623003E33FF3352461A708A
:101EC0000F33186EC0B21F0004F019F88346434662
:101ED00000933300B4220021FEF786FB38825B4674
:101EE000FB613D762300A633FF334A461A700F3359
:101EF000D86DC0B21F0004F002F883464346009339
:101F00003300B4220021FEF76FFB38825B46FB6191
:101F10003D76664BE3184A461A7087229200A31852
:101F2000D86DC0B21F0003F0EAFF8146434600931C
:101F30003300B4220021FEF757FB38824B46FB6189
:101F40003D765B4BE31852461A70A2229200A358CA
:101F50000133A350FFF78DFB534BC35C043B5A4244
:101F60005A41D2B292465A1E9341DBB29946436F10
:101F7000D8B22500143503F0C2FF071C464E962345
:101F80001B01984600933300B4220021FEF72CFB7E
:101F90002B002882EF6100251D766D234A46E2540E
:101FA0006F33E05C27007C3703F0A9FF834643468C
:101FB00000933300B4220021FEF716FB38825B4603
:101FC000FB613D762300D53352461A706837FB6DAE
:101FD000D8B203F094FF8346434600933300B42203
:101FE0000021FEF701FB38825B46FB613D76230052
:101FF0003E33FF3352461A700F33D86DC0B21F0004
:1020000003F07DFF8346434600933300B422002152
:10201000FEF7EAFA38825B46FB613D762300A63381
:10202000FF334A461A700F33186EC0B21F0003F018
:1020300066FF8346434600933300B4220021FEF737
:10204000D3FA38825B46FB613D76184BE3184A466B
:102050001A7087229200A318186EC0B21F0003F0F6
:102060004EFF8146434600933300B4220021FEF721
:10207000BBFA38824B46FB613D760D4BE318524666
:102080001A70A2229200A3580133A350FFF7F1FA6D
:1020900021F98E3C008066402602000000805640F8
:1020A000333333333333FB3F850200000D0200002E
:1020B00075020000002780463C00052C20D86826C9
:1020C00066433500103545444644736FD8B203F07B
:1020D00016FF071C96231B010093364BB4220021E8
:1020E000FEF782FAA8822F6200232B776D36013328
:1020F0003370EB620822AA62AB656A650134DCE7E3
:102100004446A1239B009846E65C68256E43A319CC
:10211000986FC0B23836A61903F0F1FE071C254BA4
:102120009A4696231B019B4600935346B4220021F6
:10213000FEF75AFA308377620836002399463376E1
:102140004346E65C731C6B43E318187A6E43370012
:102150001037E71903F0D3FE5B4600935346B422D1
:1021600000218246FEF740FAB88253463B624B4656
:102170003B77A6196D3633704346E35C6B431033EF
:10218000E3180621D96217229A6299655A65434677
:10219000E35C0133DBB24246A354052B02D943462C
:1021A0000022E254A2229200A358013BA350FFF761
:1021B00060FAC0462602000030B5564CA54404F033
:1021C00079FA192000F004F9D0231B06802292042A
:1021D0005A62FEF777FB50495048FEF797F8FEF732
:1021E00099FBFEF7CBFB0022052A09D8511C4B00B6
:1021F000DBB2A6A883540133A4A883540A00F3E7F2
:10220000474BA4AAA6A96846FEF790FD454B19784E
:102210006846FFF7D5F8102000F0DAF824E06822CD
:102220004A4310326A449068043283001B189B00B2
:102230003D48844663441D680124254080204001B8
:1022400003431D60126B93009B189B0063441A6844
:10225000144003431C6001310529E0D9334800F0E4
:1022600067FE642000F064FEFEF788FB041E01D1C7
:102270000021F1E72E4B1B78002B0FD12D4B6A4626
:10228000D35C284A11788B421BD1D0231B068022B5
:1022900092045A61802252025A6119E0264B186852
:1022A00000210BE068234B4310336B44D86242009B
:1022B000121805329A6298655A6501310529F1D9DB
:1022C000DCE76846FFF77CF8DFE72300002B18D136
:1022D0006846FFF78DF9142000F02AFE0022052A37
:1022E000F3D8682353436B442C331B78002BEDD079
:1022F000682353436B4458331B78002BE6D00132DC
:10230000EDE7D0231B06802292049A6180225202BC
:102310009A61A6E75CFDFFFFE06900100040034002
:10232000186A0010B00100200000054010270000CE
:102330005006002085020000B401002010B5830083
:10234000084A944663441C6840226240C0241440FA
:102350008022520113431C60C000034B9C46604422
:10236000416010BD04C001400040014080000B4BA3
:102370009C46604400290DD00823002A0CD004227A
:102380001343026853400C22134080225201104331
:10239000036070470023F0E70022F1E704C001402A
:1023A000002909D08000094B9C46604480239B0192
:1023B00018434023036070478000044B9C466044F0
:1023C000C0239B01184340230360F4E704C001408D
:1023D00010B501238340D022120693629361052138
:1023E000FFF7ACFF10BD0000EFF3108072B6034B97
:1023F0001B68002BFBD0BFF35F8F70472C0100D010
:10240000BFF35F8F024B00221A6080F31088704781
:102410002C0100D0F8B506000C001500FFF7E4FF12
:10242000E308F718F15C07222240012393400B4296
:1024300005D1DBB20B433B70FFF7E2FFF8BD210093
:10244000280001F0A1F90000034B1B68022018408E
:10245000431E9841C0B2704700C00640002307E009
:10246000054A9A189200BFF35F8F00211160013373
:102470001F2BF5D97047C04640000034054A10783C
:10248000431CDBB21370172B02D9130010221A70F1
:102490007047C046B801002070B504000D0006204A
:1024A00001F08CFAC000290002F032FEC60908D003
:1024B0000E4B9E4217D87F23184001303500460846
:1024C00000E001256562A6622C348020800104436F
:1024D00000232360062001F071FA8000A901891908
:1024E00002F016FE70BD0026014DEBE7FEFF000076
:1024F000FFFF0000002909D00A22064B9C466044D9
:10250000434258414000044BC2527047802252005F
:10251000F3E7C0460080FCBF4406002070B505000C
:102520000C00062001F04AFA002829D0164B9D42E3
:1025300027D08022D203154B1A60154B1A60154B19
:102540009B6811009943FAD100212800FFF7D2FFC0
:1025500021002800FFF7A0FF2C002C34E96A60223C
:102560004A406E21114080225201224311600A4BE1
:102570002B6380239B01234310221A600323AB6447
:1025800070BD80221204D6E70080034000E00040C6
:1025900000F0004000C000400103000070B50500DD
:1025A0000C00080000F014FD200000F0F9FD0849BF
:1025B000200000F039FDFFF761FF064B9C466044A8
:1025C000800068602C75A400034BE55070BDC046C8
:1025D000E1280010400000341C0400200A4B1A6857
:1025E000EFF3108172B61368002BFCD0BFF35F8F3E
:1025F000054B1B68BFF35F8F00221A6081F31088C0
:1026000040BF0020002170473006002010B500298F
:1026100022D003681B7B99421ED8174B9C4661440D
:10262000090183689C4661440C684968002A19D0F6
:1026300003681B7B9A4215D883680F48844662441E
:1026400012019A1810685368020001208B4201D8C9
:102650000ED00020C0B210BD084B094A3B210948EA
:1026600000F0F8FF054B064A3B21064800F0F2FF58
:10267000A242EFD8EDE7C046FFFFFF0FA46A0010AB
:10268000106D0010746A001010B500291ED0037B75
:1026900099421BD84B005B18033B0468A446634473
:1026A000002919D0002A1DD0914221D0002A25D01E
:1026B000047BA24222D804685000801803382018F6
:1026C0008170197800291FD11A7010BD104B114A62
:1026D0006921114800F0BEFF104B114A70310E48BD
:1026E00000F0B8FF0F4B0E4A71210B4800F0B2FF0B
:1026F0000D4B0B4A7221084800F0ACFF044B054A11
:102700006921054800F0A6FF41701A70DDE7C04658
:10271000D86A00107C6D0010F46A0010346B001051
:10272000586D0010406B00104C6B001070B5060027
:102730000D001400002914D0002A14D0806873689A
:102740009847002806D0220029003000FFF79CFFA0
:10275000280007E02A0021003000FFF795FF200045
:1027600000E0100070BD0800FCE70000F0B583B089
:102770000500009201930AAB1C780BAB1F78002C6C
:1027800026D003685A7B944207D10123002B19D12C
:10279000002C3BD1200003B0F0BD002C0CD01A7BE4
:1027A000944209D81A6863001B19033BD3189B781D
:1027B000002BEBD00123E9E73E4B3F4A69213F481C
:1027C00000F048FF3E4B3F4A65213F4800F042FF82
:1027D00003689C7B002CDBD012D01A7B94420FD86C
:1027E00062001219033A19688C4662445178997351
:1027F000002900D1D9730023937053701370C7E779
:102800002C4B2D4A69212D4800F024FF002C3AD092
:102810002B681B7B9C4236D82C4BE3181B01AA6803
:1028200094466344009A1A60019A5A60089A9A6022
:10283000099ADA602E68002C2BD030D0337B9C4272
:102840002DD863001B19033B326894466344002271
:102850009A705A701A70717B22003000FFF766FF81
:102860007073844200D095E7287D009A019B00F0A8
:1028700023FC061E01D0002F17D00C9B002B00D18B
:1028800088E71E7086E7124B124A3B210E4800F083
:10289000E1FE114B114AA621084800F0DBFE054B72
:1028A000054A6921054800F0D5FE2868210000F09E
:1028B0004FFEE2E7D86A00107C6D0010F46A001049
:1028C000646B0010886D0010746A0010FFFFFF0F2A
:1028D000A46A0010106D0010706A00106C6D00107A
:1028E000F0B5DE4657464E464546E0B58BB00990FA
:1028F000002308938200B24BD658370032E0B14B28
:10290000B14A3F21B14800F0A5FEB14BB14A3B218D
:10291000B14800F09FFEB14BB14A8C21AE4800F0A7
:1029200099FEB04BAE4A9021AB4800F093FEA84B05
:10293000AD4A4021A84800F08DFE2A686B680998CE
:1029400000F0BAFB00239A4698467B68BFF35F8F7E
:1029500000221A6086F310884346002B51D10028CC
:1029600000D126E100F040FB02000B1EC7DB002077
:102970000021069007917868EFF3108672B601681F
:102980000029FCD0BFF35F8F396888464C7B002C50
:1029900032D0BAD0097B8C42B7D8944965182D0142
:1029A000B9688C46654428686968801A994100298D
:1029B000C3DC01D10028C0D10021404600F0BEFD9B
:1029C000A042A8D12A686B6806920793AB68984624
:1029D000EB689A464346002BA3D0002CA7D03B6857
:1029E0001B7B9C42A3D8631EFA68D35C08931B022E
:1029F000184338610020A8E700239A469846002033
:102A0000A3E7089B1B022343994651461800C04781
:102A100005000E007A68EFF3108B72B61368594206
:102A20004B41D9B2002BF9D1BFF35F8F002E26DBCB
:102A3000002E52DD3B69002B53D04B4572D100F084
:102A4000D3FA02000B1E73DB010018005219734108
:102A5000984202D804D1914202D901225242D3179E
:102A6000002B6BDB0021049101310391029451464C
:102A70000191414600913800FFF778FE49E03B693B
:102A8000002BD5D04B451CD1069A079B100019008E
:102A9000521BB341994202D804D1904202D901227B
:102AA0005242D317002B12DB002104910131039114
:102AB000029451460191414600913800FFF756FEBD
:102AC00027E04B4B464A9F21434800F0C3FD3D4B56
:102AD0003D4A3F213D4800F0BDFD002E01D1002DB3
:102AE000A8D13A68002C45D0537B9C422CD10121BF
:102AF00000293FD1D37B002B42D1D473002C52D07C
:102B00003B681B7B9C424ED8FA68013C135D013345
:102B1000135500233B617A68BFF35F8F13608BF31B
:102B200010881FE7324B2E4AA2212B4800F092FD5D
:102B3000244B254A3F21254800F08CFD214B224A99
:102B40003F21224800F086FD002C0DD0137B9C42D3
:102B50000AD863001B19033B1068844663449B78C2
:102B6000002BC5D00121C3E7224B234A692123480A
:102B700000F070FD224B234AF721204800F06AFD47
:102B8000002B0AD0117B8B4207D85900CB18033B8E
:102B900011688C4663445C70AFE7164B164A692196
:102BA000164800F057FD0A4B0F4A40210A4800F032
:102BB00051FD0BB0F0BCBB46B246A946A046F0BDE5
:102BC0001C0400208C6B0010DC6C0010A86B001043
:102BD000A46A0010106D0010746A0010E46B0010FD
:102BE000F46C0010FC6B0010346D0010FFFFFF0F41
:102BF000086C0010D86A00107C6D0010F46A001098
:102C0000446C0010486D001010B50A4B5B68002B37
:102C100004D00A21084800F0E3FA10BD054C230057
:102C2000064A1021206800F0A9FB03212000FFF7CD
:102C3000B5FCEEE7BC010020300600200D26001098
:102C400010B5064B5B68002B01D0044810BD044B47
:102C5000044A5C21044800F0FDFCC046BC01002091
:102C6000686C00101C6D0010746A0010F0B5DE4630
:102C700057464E464546E0B58BB0804616001F00CD
:102C8000149B9A46159B994616AB1B789B461F23AF
:102C900002AA9446634400221A7032E0002809D048
:102CA00042461268127B904204D8421E4146C968CF
:102CB0008A5C48E0434B444A4021444800F0CAFC47
:102CC0000798002B75D05B46002B72D04946D04741
:102CD00004000D0003000B4300D171E0002946DB26
:102CE00000F082F906000F1E55DB36196F41B9421C
:102CF00002D804D1B04202D901267642F717002F3C
:102D00004FDB43465A68EFF3108472B6136859429A
:102D10004B41D9B20791002BF8D1BFF35F8F1F331E
:102D200002AA9446634404930023039302934B4600
:102D300001935346009332003B004046FFF716FDD7
:102D4000031EABD1020041464968BFF35F8F0025E7
:102D50000D6084F31088002B29D01F2302A98C4614
:102D600063441B78002BABD112021043A9E7320059
:102D70003B00361BAF41BB4202D804D1B24202D95C
:102D800001267642F717002FBBDA114B114A3F217B
:102D9000114800F05FFC0E4B0E4A3F210E4800F038
:102DA00059FC0B4B0B4A3F210B4800F053FC012010
:102DB00040420BB0F0BCBB46B246A946A046F0BDAF
:102DC0000798F6E7A46A0010346D0010746A0010CA
:102DD0008C6B0010DC6C0010A86B0010F0B587B095
:102DE00006000F00FDF73FFA00281FD106246442B9
:102DF000E517A4197D41BD4202D803D1B44201D9DF
:102E000000240025002D14DB0494059500F0ECF857
:102E100002000B1E13DBA41A9D41002D17DC14D0F9
:102E20003000390000F0ECF807B0F0BD234800F0A6
:102E3000ABFC234B234A3F21234800F00BFC204BE3
:102E4000204A3F21204800F005FC002CE8D0FFF785
:102E5000F7FE0023029301931C4B0093049A059BF9
:102E6000FFF704FF002818DADAE7002300E0002368
:102E7000002BD5D1164B1A68EFF3108172B6136888
:102E8000002BFCD0BFF35F8F114B1B68BFF35F8F2C
:102E900000221A6081F3108820BF0499059A0D4B17
:102EA0005B6A9A42E3D80B48806A884203D29A420E
:102EB000DBD00123DCE70123DAE7C0468C6C00108D
:102EC0008C6B0010DC6C0010A86B0010DD2500106E
:102ED0003006002000400540F8B504000D0000F069
:102EE00083F802000B1E10DB2000290080185941D6
:102EF0008B4202D804D1824202D901204042C1173C
:102F0000002908DBFFF76AFFF8BD064B064A3F21A0
:102F1000064800F09FFB034B034A3F21034800F0A3
:102F200099FBC0468C6B0010DC6C0010A86B001085
:102F300010B5FA2292000023002102F067FFFFF78C
:102F4000CBFF10BD70B5EFF305833F20184010385C
:102F5000EFF3108C72B6194B1B68002BFBD0BFF33C
:102F60005F8F012319008140154A5163154A127879
:102F70001400C440234214D0114B5C6A8300124DEC
:102F80005B599C4206D38300104C1B598A430D4960
:102F90000A7007E00A4A031D9B00995899500023C4
:102FA00000E00023BFF35F8F044A002111608CF31F
:102FB0001088002B00D0984770BDC046280100D073
:102FC000004005404F060020340600209C030020EE
:102FD00010B50100024A0348FFF71CFA10BDC046B5
:102FE000A06D00104D060020044B5B6A034A906AF6
:102FF0001900536A9942F9D17047C0460040054014
:10300000084B5B6A01E0074B5B6A8B42FBD301E034
:10301000044B5B6A8B4203D1024B9B6A8342F7D31A
:103020007047C0460040054070B504000D00EFF346
:10303000108672B61B4B1B68002BFBD0BFF35F8F53
:10304000002D1CD0200000F031FD174B83420BD027
:103050001900200000F032FD0121200000F01EFDCB
:103060000123A340114A1360A400114BE550BFF3A4
:103070005F8F0C4B00221A6086F3108870BDA2008F
:103080000B4B0021D1500122A2400A490B789343F7
:103090000B700549200000F03BFD0021200000F0EE
:1030A000FDFCE4E7280100D0452F00103860054002
:1030B0009C0300204F060020F0B5DE4600B584B02A
:1030C0000400150001921E000293FFF78DFF039587
:1030D0008E4202D84ED185424CD9EFF3108B72B696
:1030E000274B1B68002BFBD0BFF35F8F254A177857
:1030F0000125A540EBB23B431370234B5D63221DBA
:1031000092000199D150A2002049029850501B6AA8
:103110002B4212D11C4B1B6C2B4208D00020BFF35A
:103120005F8F174B00221A608BF3108823E0184B37
:10313000184AC121184800F08DFAFFF755FF8E425A
:1031400014D802D1039B834210D80E4B1B78BB428C
:103150000ED00D4B1D625D631F2004400123A34070
:103160000E4A1360074B1F701E38D8E70020D6E7C1
:103170000120D4E7012004B080BCBB46F0BDC046AE
:10318000280100D04F0600200040054034060020F2
:10319000C46D0010206E0010E86D001080E200E0A9
:1031A000EFF3108C72B60B4B1B68002BFBD0BFF3F8
:1031B0005F8F01238340084A136208490A789A43C3
:1031C0000A70BFF35F8F034B00221A608CF31088E4
:1031D0007047C046280100D0004005404F0600203F
:1031E000024B9C46614489000160704740000034F6
:1031F00010B50400FFF742F901002000FFF7F0FFCF
:10320000FF232371BFF35F8F10BD10B50400FFF7DC
:1032100035F901002000FFF7E3FFFF2323710023AE
:103220006371BFF35F8F10BD10B500291ED0037B03
:1032300099421BD84B005B18033B0468A4466344C7
:10324000002919D0002A1DD0914221D0002A25D072
:10325000047BA24222D8046850008018033820184A
:103260008170197800291FD11A7010BD104B114AB6
:103270006921114800F0EEF9104B114A70310E48E7
:1032800000F0E8F90F4B0E4A71210B4800F0E2F90B
:103290000D4B0B4A7221084800F0DCF9044B054A3B
:1032A0006921054800F0D6F941701A70DDE7C04683
:1032B000D86A0010B86F0010F46A0010346B001068
:1032C000A46F0010406B00104C6B001070B506002E
:1032D0000D001400002914D0002A14D080687368EF
:1032E0009847002806D0220029003000FFF79CFFF5
:1032F000280007E02A0021003000FFF795FF20009A
:1033000000E0100070BD0800FCE7000010B50023CD
:10331000437301338373037BC3730123027B9A429C
:1033200014D9002B0CD0027B934209D85A00D21832
:10333000033A01688C4662440133DBB25370EDE717
:103340000B4B0C4A69210C4800F084F9002A09D083
:10335000924207D8016853009A18033A8A1800234A
:10336000537010BD024B034A6921034800F072F903
:10337000D86A0010B86F0010F46A001010B501731D
:1033800042608360FFF7C2FF10BD000070B504000B
:10339000081E00D170BD002934D0237B994231D85A
:1033A0004B005B18033B2268944663445A78002A1A
:1033B000F0D02DD0237B9A422AD853009B18033B90
:1033C00021688C4663445D7800215970002825D01F
:1033D000237B984222D843001B18033B21688C466C
:1033E00063440021597001002000FFF76FFF0600C1
:1033F00029002000FFF7CAFF020031002000FFF77C
:1034000065FFC7E7084B094A6921094800F022F91E
:10341000054B064A6921064800F01CF9024B034A95
:103420006921034800F016F9D86A0010B86F00103F
:10343000F46A001070B505000C001600002928D0B1
:103440002DD0037B99422AD84B005B18033B0268BE
:10345000944663445A78002A27D19A78002A2AD1C0
:103460001978FFF793FF0300002E03D0EA7B002AB0
:1034700027D1EC73002B37D1002C49D02B7B9C42F9
:1034800046D82B6861000C19033C1C19002363709B
:1034900070BD224B224A3821224800F0DBF8224B33
:1034A000224A6921224800F0D5F8224B1C4A3A21D1
:1034B0001C4800F0CFF8204B194A3B21194800F076
:1034C000C9F8002A0AD0297B8A4207D851008A18F5
:1034D000033A29688C4662445470CAE7124B134A77
:1034E0006921134800F0B6F8002B0BD02A7B9342D9
:1034F00008D843001B18033B2A6894466344002203
:103500009A70B9E7084B094A6921094800F0A2F806
:10351000054B064A6921064800F09CF8CC6E001065
:10352000906F0010D46E0010D86A0010B86F0010B1
:10353000F46A0010046F00102C6F001070B50400C6
:103540000A00457B2900FFF775FF6073280070BDF6
:1035500070B50400002967D0437B8B420ED0002950
:1035600011D0037B99420ED84B005B18033B0268D5
:10357000D0188378002B0CD1002056E00121FFF7F2
:10358000DDFF012051E0294B294A6921294800F03B
:1035900061F8002B20D0227B93421DD85A00D3180B
:1035A000033B2268D2182568EB5C8B421AD0002BB3
:1035B0001BD0227B934218D85A00D318033B2268B1
:1035C000D21853788B4216D0002BF0D11A4B1B4ADD
:1035D00067211B4800F03EF8144B154A6921154835
:1035E00000F038F84378137007E0104B104A692157
:1035F000104800F02FF84378537000238370437015
:1036000001222000FFF716FF0200617B814205D0F6
:103610002000FFF75BFE6073012006E0094B074ABC
:103620006D21074800F016F8002070BDD86A001020
:10363000B86F0010F46A0010506F0010786F00101F
:10364000D46E0010586F001000BEFDE710B5FFF7F4
:10365000FBFF000010B582B00C001900002A0CD04E
:10366000084B002A0BD00192009323000200064869
:1036700003F014F80120FFF7E7FF044BF1E7034ADA
:10368000F1E7C046C46F0010D46F0010D06F001077
:1036900070B52B4B2B4A1A602B4B2C4A1A602C4BC3
:1036A0009A682A4B9343FAD12A4C01E008CC9847F8
:1036B000294B9C42FAD300F001F9234B274A1A60A8
:1036C000234B9B68DB43DB01FAD1254B40229A67F1
:1036D0005A671A67DA66234C09E0234B234A832191
:1036E0002348FFF7B7FF2000FFF782FD0834214B86
:1036F0009C4209D22368002BF5D0012BEDD120008C
:10370000FFF783FD0834F2E71B4CA1681B4DC02274
:10371000280002F079FEA560FCF7A5FD002800D086
:1037200000BEFEF79BFE00F041FBFFF76DFA144C64
:1037300001E008CC9847134B9C42FAD370BDC046B9
:1037400000E00040BFCDFBFE00F00040FE7F3C00EB
:1037500000C000406C0200207C020020FFFFFF013F
:1037600000F0014064020020047000106C70001032
:10377000247000106C02002000ED00E0000000202A
:103780007C020020800200200FB400B583B00848FE
:1037900002F052FF049B002B07D005A901911800ED
:1037A00002F05AFF034802F047FF0120FFF74CFFE9
:1037B0005C700010EC690010F8B5DE4657464E46C6
:1037C0004546E0B505000F0092460A9A93424ED353
:1037D0001A0E91461E020A9A00233000494601F053
:1037E000D9FC80466C006419A4002F4B9C466444AD
:1037F0006368834200D260602B1FDBB29B46012BC3
:103800003BD9C0239B012343802212011A60AB00E5
:10381000264A9958002905D0506901F079FC0130F9
:103820000138FDD153465A0123685A40E0231A401B
:1038300080235B0123431A605A46012A28D980233A
:103840009B012343802212011A6043466360424673
:1038500000233000494601F09DFCAD00134B585148
:103860000120F0BCBB46B246A946A046F8BD104BAD
:10387000104A2D211048FFF7EDFE012FC1D1C023C2
:103880009B01234303221A60A368DB07FCD5C9E729
:103890002168794003220A401A60A2680123BB40D4
:1038A0001342FAD0CBE7C04600800040AC030020B2
:1038B0007C700010CC7000109070001030B583B098
:1038C0000C2000F00DFBFEF7BFFD00280DD00023FB
:1038D00004E099002D4A2E4888500133092BF8D96D
:1038E0002A4B2C4A5A6203B030BD2B4B00229A67F8
:1038F00000F0FEFA294B01221A60274B5B6C012B6A
:10390000FBD1274B03221A60234B9B6B012BFBD16E
:10391000022400940533234A0121234800F054FA7D
:1039200000940523214A0121214800F04DFA214B42
:103930000093002202210420FFF73EFF1E4D009558
:103940002B00002201210520FFF736FF104C0094C8
:103950002300002200210720FFF72EFF0094230000
:10396000002200210820FFF727FF0A4B00932300C5
:10397000002200210920FFF71FFF00952B000022E5
:1039800000210620FFF718FFADE7C046AC0300207A
:10399000006CDC021BB70000008000403CB000401F
:1039A00030B00040002F68590080024000389C1C55
:1039B00000C00240001BB700405973078000014B54
:1039C000C0587047AC030020074B9B681030800044
:1039D0001950BFF35F8FBFF35F8F044B0021196055
:1039E00082F310887047C04600ED00E0240100D04B
:1039F00010B5091A04394808090B05D14005400DD6
:103A0000044B184380B210BD034B044A8B21044879
:103A1000FFF720FE00E0FFFFDC700010DC720010FA
:103A2000EC70001010B5091A04394C08090B08D1C4
:103A30004905490D064A11430180064B2343438043
:103A400010BD054B054A93210548FFF703FEC0460C
:103A500000F0FFFF00F8FFFFDC700010B0720010F4
:103A6000EC70001001238340034A10681840431E85
:103A70009841C0B27047C04600E100E0002904D080
:103A8000034B1860034B18607047034B1860FBE74B
:103A900080E200E000E100E080E100E010B50123F9
:103AA00083401800FFF7EAFF10BD0000024B9B683F
:103AB00010308000C058704700ED00E070B5040081
:103AC0000D00EFF3108672B60C4B1B68002BFBD079
:103AD000BFF35F8F2000FFF7E9FF094B984201D049
:103AE000A84205D1320029002000FFF76DFF70BD0C
:103AF000044B054A6E210548FFF7ACFD240100D0B8
:103B0000CD01001020710010F8720010EC70001050
:103B1000F0B5CE46474680B583B006000D00EFF302
:103B2000108872B6574B1B68002BFBD0BFF35F8F1A
:103B3000554B9A6834001034A300D758534B9F421A
:103B400007D0AF4200D19BE00197514BFB1A2F2BBE
:103B500009D9424639003000FFF736FF03B0C0BC38
:103B6000B946B046F0BD3000FFF77CFF814600212A
:103B70003000FFF793FFBFF35F8FFCF774FB002863
:103B800001D0844219D10123019C9C434149230067
:103B90003F4A9B1A5B415943090D49B20022A36871
:103BA000AB4212D00622A256002A0DDB53009B180E
:103BB0009B002200364CE418F1E71E21364B374AB1
:103BC000FF313748FFF746FD2200AB4251D10625B1
:103BD0006557002D39DB6B005B199A002C4B9B1845
:103BE0009A68A260DA79E27106229A56A2719B79EC
:103BF0005BB2002B10DABD200002A0806B005B19C5
:103C00009B00234AD318274A1178997115704946A9
:103C10003000FFF743FF9CE7201D6B005B199B0002
:103C20001B4A9B181A1D9B88D90A1C2907D15B05C2
:103C30005B15023359005118FFF7DAFEDDE71A4B26
:103C40001A4A99211648FFF705FD00280CD1002AD1
:103C500008D0FF239371164B9380124B1A78A271F0
:103C60001970D4E7094FF8E7201D1249FFF7DAFE73
:103C7000CDE7A921104B094A49000948FFF7EAFCA2
:103C8000024F66E7240100D000ED00E0CD010010F6
:103C9000E4010020AAAA000034720010C8720010CB
:103CA000EC7000104E0600201C720010E87200102C
:103CB00000BDFFFF1E0200205872001070B5040006
:103CC000012606432D4BF31A2F2B28D8FCF7CBFAED
:103CD00000282BD0EFF3108C72B6294B1B68002BF9
:103CE000FBD0BFF35F8F274D22002449521A524167
:103CF00055432D0D6DB2244B9B6880001B58B34279
:103D00001BD00022032A32D853009B189B001B496A
:103D1000CB189B795BB2AB421FD00132F2E778211E
:103D20001A4B1B4AFF311B48FFF794FCBD211A4B6D
:103D3000174A49001748FFF78DFC134B9B68174A39
:103D40001A50174B1A78A2711D70BFF35F8F0C4B7E
:103D500000221A608CF3108870BD08005300991877
:103D600089004118FF268E710E4A8A80E9E78C216E
:103D70000D4B074AFF310748FFF76CFCE4010020B8
:103D8000240100D0AAAA000000ED00E0607200103B
:103D900094720010EC70001088720010CD010010B9
:103DA0004E06002000BDFFFF506F00100022044BA4
:103DB00002E0044902C30132072AFAD97047C0461B
:103DC00000E400E080808080F0B5CE4600B50400BD
:103DD0000E0091461F000C2001F09AF905004301E6
:103DE0001B1A9901C91AC90009188901484601F02E
:103DF0008FF90200103A98235B009A4233D87B1E59
:103E0000062B36D8069B013B062B32D8069B9F42D9
:103E100035D34B461A09AA4237D33F04069B1D03EC
:103E20002F432368002B36DB234B9C4241D080225A
:103E30005201224B1A60224B1A60224B9B681100E0
:103E40009943FAD12660A060231DC02292011A4333
:103E5000212313602368002BFCDAE760082313603A
:103E600080BCB946F0BD184B184A16211848FFF718
:103E7000F1FB184B154A19211548FFF7EBFB164BC0
:103E8000124A1F211248FFF7E5FB144B0F4A22216B
:103E90000F48FFF7DFFB22683F231340B342C3D133
:103EA000A3681B051B0D8342BED1E368002FBBD165
:103EB000D6E780229201BCE700C0024000E000404B
:103EC00000F0004000C0004014730010E4730010C4
:103ED0003073001064730010B0730010C8730010CA
:103EE00080239B000343014AD36270470080054052
:103EF000064BAA2212011A602F22DA60044B054AEF
:103F00001A60024B5B68002BFBDA704700400240EE
:103F10000060024000B0FA00704710B5002802D0DF
:103F20000B684968984710BD0100002007E0830036
:103F30001B185B00501C08601078C01830380A68E5
:103F40001378303BDBB2092BF1D97047F0B5DE4670
:103F500057464E464546E0B583B093461F000C9B3E
:103F60009A460D9C0E9B99460F9B9B0703D0B84623
:103F70000F00060022E00192A34688464E46B9464D
:103F80000700B44207D2551C4B4641462020B84793
:103F900001342A00F5E73D004F465C46019B9B46F5
:103FA000B1464646B84637002E0007E0013C551C96
:103FB0005346185D43463900B0472A00002CF5D11E
:103FC00035003E0047460F9B9B0707D4100003B007
:103FD000F0BCBB46B246A946A046F0BDB0464E4630
:103FE000B9462F005D46531BB342EFD2541C4B46DB
:103FF00041462020B8472200F5E7F0B5CE464746B7
:1040000080B585B0944698460C9D0D9C0EAB1B78F0
:104010009946109A119B129EB7071CD4002B0CD006
:10402000F7070AD54F46002F02D10C37374204D08C
:10403000013B02E030272F550134944201D21F2C5E
:10404000F8D9F70707D59C4205D21F2C03D8302793
:104050002F550134F5E7F70615D5770505D4002C63
:1040600003D0944224D09C4222D00F9A102A2BD005
:104070000F9A102A30D00F9A022A35D01F2C02D85E
:1040800030222A5501341F2C05D84A46002A31D047
:104090002D222A550134039602930194009543463C
:1040A0006246FFF753FF05B0C0BCB946B046F0BD4D
:1040B000621E012C06D00F9F102F01D01400D4E7F0
:1040C000023CD2E71400D0E7B206D1D41F2CCFD8DF
:1040D00078222A550134D1E7B206CCD51F2CCAD894
:1040E00058222A550134C9E71F2CC7D860322A55F7
:1040F0000134C3E7720703D52B222A550134CAE7DE
:104100003207C8D520222A550134C4E7F0B5DE466F
:1041100057464E464546E0B593B081468A460892DA
:1041200009931CAB10CB1B789B461E9D219B984688
:10413000002C03D1102342469A4390468023DB0093
:1041400046461E4042461A4212D0002C22D000267B
:104150000EE03033D9B2771C0AAB99552900200004
:1041600000F0D6FFAC4216D31F2F14D83E00040037
:104170002900200000F0CCFFCBB2092BE9D9424640
:10418000920605D54121C918C9B20A39C9B2E2E778
:104190006121F8E7270043460693209B05931F9B68
:1041A000049303955B46029301970AAB0093099B26
:1041B000089A51464846FFF720FF13B0F0BCBB46B3
:1041C000B246A946A046F0BDF0B5DE4657464E467B
:1041D0004546E0B595B0089009910A920B931E9E52
:1041E0001F9C20AB1B789B46229B9946239D269BB8
:1041F0009A463300234303D1103352469A439246E2
:104200008023DB0057461F4052461A4219D0330024
:1042100023432DD0002714E03033DAB27B1C9846BC
:104220000CABDA554A462B003000210000F0B2FFFB
:10423000A5421FD819D043461F2B1BD8474606005E
:104240000C004A462B003000210000F0A3FFD3B23F
:10425000092BE1D95246920605D54122D218D2B295
:104260000A3AD2B2DAE76122F8E7B145E3D901E0D0
:104270000023984653460693259B0593249B04935D
:104280004B4603935B460293434601930CAB00936A
:104290000B9B0A9A09990898FFF7AFFE15B0F0BC7E
:1042A000BB46B246A946A046F0BD0000F0B5DE46CA
:1042B00057464E464546E0B591B083468A460C9235
:1042C00098461A9C08941B9D099522002B002000FB
:1042D000290001F0EEF9002800D0E5E00122524269
:1042E000D74B2000290001F0DFF9002800D0DBE0E7
:1042F00001225242D34B2000290001F0BFF90028CF
:1043000000D0D1E000220023089E3000099D290042
:1043100001F0B4F9002800D0DDE008980999069072
:1043200007918023DB001E9A1A400D921E9A1A42B2
:1043300001D106231C930698079904000D000A007A
:104340000600024300D1D1E0080D4005400DBE4CEF
:10435000A44660440A03120BBC4B13431F0001F038
:10436000BBF9BB4ABB4B01F046F9BB4ABB4B01F062
:104370001BF904000D000022B94B3000390001F098
:104380000AF9B84AB84B01F036F902000B002000D8
:10439000290001F009F901F0B7F9814601F09CF913
:1043A00004000D00B14AB24B01F025F90022B14BD7
:1043B00001F0FAF801F0A8F90600AF4AAF4B20006F
:1043C000290001F018F904000D00300001F084F913
:1043D000AB4AAC4B01F00FF902000B0020002900A2
:1043E00001F0D9F804000D0002000B0001F003F900
:1043F0000A900B91A44BF31800261F0522002B00F6
:104400002000290001F0D0F80E900F9122002B001F
:1044100000208021C90501F0BEF804000D00002233
:104420009A4B0A980B9901F0C8F80022984B01F0BA
:10443000BBF802000B000A980B9901F0BEF80022AD
:10444000944B01F0B1F802000B000A980B9901F0AF
:10445000B4F802000B002000290001F0A5F80200CA
:104460000B000E980F9901F0A8F80022774B01F08D
:104470009BF832003B0001F0BEF806000F0004007C
:104480000D00069A079B01F00FF9002830D0012398
:104490005B429C46E14400227D4B3000390001F034
:1044A0008CF804000D0023E01E9B04931D9B0393D6
:1044B0001C9B0293089A099B0092019343460C9A15
:1044C0005146584600F0FCF811B0F0BCBB46B2466D
:1044D000A946A046F0BD0023002406930794069643
:1044E00080231B069C46654407951AE700239946DE
:1044F0004B466333C62B1ED804261E9B1B0526D5B0
:104500002B0023430FD0644A644B0698079901F0AF
:10451000C3F8002879D00022614B0698079901F072
:10452000ADF8002871D01C9B4B4506DD4A46981A11
:10453000431E1C9303E00526DFE700231C93802322
:10454000DB001E9A1A431E920026002399461D9BEB
:104550009E4264D29F1B02231E9A1A400A921E9A00
:10456000134202D0002E00D000274B46002B07D06C
:1045700022002B000698079901F01FF8069007917A
:10458000002200230898099901F078F8002848D102
:10459000444B1E9A1340049303971C9B0293069B63
:1045A000079C0093019443460C9A5146584600F0EC
:1045B00087F8002E00D187E71E9B9B063DD5452539
:1045C000441C4346020051462800D8474B46DA17A0
:1045D0009B18534005220592013E04960022039247
:1045E0000A3202924A46D00F0190009343462200BD
:1045F00051465846FFF78AFD0A9B002B00D163E71E
:1046000002005F460C9E1D9D54E01C9B002B9ED01B
:104610000D9B002B9BD01C9B013B1C9397E7002715
:1046200099E7069C079D2200290080200006844609
:1046300061440B0006920793AAE76525C0E7C046D0
:10464000FFFFEF7FFFFFEFFF01FCFFFF0000F03FE8
:10465000FB799F501344D33FB3C8608B288AC63F71
:104660000000F83F61436F63A787D23F71A37909C8
:104670004F930A400000E03F1655B5BBB16B0240B6
:10468000EF39FAFE422EE63FFF03000000002C4007
:1046900000002440000018402D431CEBE2361A3F76
:1046A00080842E41FFF7FFFF541C434651462020D3
:1046B000B8472200931BAB42F6D3100004E7C04674
:1046C000F0B5DE4657464E464546E0B595B00690F5
:1046D000079193469946209F1E9A1F9B1000190030
:1046E00000F0E7FF002831D101225242BF4B1E9853
:1046F0001F9900F0C3FF002837D101225242BC4B62
:104700001E981F9900F0D0FF00283DD10022B94B20
:104710001E981F9900F0C8FF002850D10022B64B08
:104720001E981F9900F0AAFF002848D100220023FC
:104730001E981F9900F0A2FF002850D10023984630
:10474000229B5B0500D4B6E0002458E0229B039333
:10475000219B029303230193A84B00934B465A4697
:1047600007990698FFF7F2FB0EE1229B0393219B2A
:10477000029304230193A24B00934B465A46079998
:104780000698FFF7E3FBFFE00423229A1A402299E0
:104790000B4210D09B4B002A0FD004222299039188
:1047A00021990291019200934B465A460799069827
:1047B000FFF7CCFBE8E0944BEDE70322EEE7229B0A
:1047C0000493219B039302971E9B1F9C00930194CB
:1047D0004B465A4607990698FFF768FDD4E01E9AA3
:1047E0001F9B0020002100F0D6FE1E901F91012388
:1047F0009846A5E70CAB30221A55013F01341F2C17
:1048000001D8092FF6D81E981F9900F07DFF0500EA
:1048100000F062FF02000B001E981F9900F0BBFE23
:10482000FA007A4B9B181A685B680A920B9300F0A7
:10483000E2FE0890099100F08BFF060000F048FFAF
:1048400002000B000898099900F0A5FE0890099154
:1048500000226F4B00F028FF00282ED001363000D8
:1048600000F036FF02000B000A980B9900F00CFFD5
:10487000002801D001350026002F2CD1280000F09F
:104880002BFF02000B001E981F9900F084FE06000B
:104890000F0000225E4B00F0F1FE002846D10022FE
:1048A0005B4B3000390000F0FFFE00283ED1EB07E3
:1048B0003CD501353AE0062746E70022544B0898DC
:1048C000099900F0DBFE0028D6D1002E01D0F307B5
:1048D000D2D50136D0E7AA461F2C11D8013F0A21B4
:1048E000300000F015FC651C30310CAB19550A2165
:1048F000300000F00DFC092E0ED906002C00EBE76D
:1049000055461F2C0CD87B1E002F09D00CAA302135
:1049100011551F000134F4E72B0055461C00F0E749
:104920001F2C03D80CAB2E221A5501341F2C10D883
:104930000A21280000F0C4FB661C30310CAB19556D
:104940000A21280000F0BCFB051E01D03400EDE771
:1049500034000323229A1340012B1CD01F2C06D8AD
:104960004346002B32D00CAB2D221A550134229B2A
:104970000393219B029301940CAB00934B465A4640
:1049800007990698FFF7E2FA15B0F0BCBB46B246AD
:10499000A946A046F0BD219B002B13D04346002B17
:1049A00002D10C3313420FD0219B013B21931900FC
:1049B00003E00CAB30221A5501348C42CED21F2CAE
:1049C000F7D9CBE72199F8E72199F6E7229B5B0716
:1049D00004D50CAB2B221A550134C8E7229B1B07C8
:1049E000C5D50CAB20221A550134C0E7FFFFEFFFFD
:1049F000FFFFEF7F65CDCD4165CDCDC1FC730010CC
:104A000000740010F4730010F0730010E8750010CB
:104A10000000E03FF0B5DE4657464E464546E0B55D
:104A200093B082468B4690461193002900D1EBE269
:104A300000275546119B1878002800D1E7E2252869
:104A400009D07C1C43463A005946A847119B0133C4
:104A500011932700EEE7013311930024119A117886
:104A60000B00203BD8B2102803D88300D048C3588D
:104A70009F460B00303BDBB2092B2CD92A292FD0C3
:104A800000230A93119B1A782E2A39D000239A46C4
:104A9000119A1378683BD9B2122976D88B00C54990
:104AA000CB589F4601231C4301321192D6E70223C3
:104AB0001C4301321192D1E704231C4301321192AD
:104AC000CCE708231C4301321192C7E710231C4393
:104AD00001321192C2E711A8FFF726FA0A90D1E736
:104AE0001C9B1A1D1C921868002804DB0A90119B5D
:104AF00001331193C6E702231C4343420A93F6E7AE
:104B00008022D20014435A1C11925A781300303B71
:104B1000DBB2092B04D92A2A07D000239A46B7E72B
:104B200011A8FFF701FA8246B2E71C9B1A1D1C92DE
:104B30001868002804DB8246119B01331193A7E714
:104B40000020F8E780235B002343511C1191527829
:104B50006C2A01D01C0018E0C0239B001C430131CB
:104B6000119112E080232343511C11915278682A3D
:104B700001D01C0009E0C0231C430131119104E065
:104B800080235B001C4301321192119B18780300B3
:104B9000253BDAB2532A00D92CE29300864AD35837
:104BA0009F4680239B001C4301321192EDE7802336
:104BB0005B001C4301321192E7E7782809D058289E
:104BC00038D06F2838D0622838D010239C430A266A
:104BD00000E01026582833D0692803D0642801D07B
:104BE0000C229443630501D50122944369282AD0FD
:104BF000642828D0A30500D59FE0E30500D5B8E0E0
:104C0000630600D4CAE01C9A111D1C911168FF2292
:104C10000A4005940A9B049353460393029600238B
:104C20000193009243463A0059462800FFF76EFA76
:104C3000070027E01026CDE70826CBE70226C9E7C4
:104C400020221443C8E7A30520D4E30550D463060B
:104C500066D51C9A111D1C911168FF220A40D317BA
:104C6000D118594005940A9B049353460393029626
:104C7000D20F0192009143463A0059462800FFF7AF
:104C800045FA0700119B01331193D3E61C9BDA1DF3
:104C900007218A43110008311C91116853689C4612
:104CA000DB170C930D930C9A0D9B100048400E904F
:104CB000624653400F930E980F990C9A0D9B801AE1
:104CC00099410E900F9108940A9B079353460693BF
:104CD0000496002305936346DA0F02920090019137
:104CE00043463A0059462800FFF76EFA0700C9E725
:104CF0001C9A111D1C911268D317D11859400594A4
:104D00000A9B0493534603930296D20F019200919B
:104D100043463A0059462800FFF7F8F90700B1E783
:104D2000230605D51C9A111D1C910023D25E96E71F
:104D30001C9A111D1C91126891E71C9BDA1D07211A
:104D40008A43110008311C9108940A9B079353462B
:104D50000693049600230593029313685468009306
:104D6000019443463A0059462800FFF72DFA070000
:104D700088E71C9A111D1C9105940A9B04935346C5
:104D800003930296002301931368009343463A006D
:104D900059462800FFF7BAF9070073E723060DD537
:104DA0001C9A111D1C9112681204120C31E7C046A6
:104DB000087400104C740010987400101C9A111D97
:104DC0001C91126825E746281AD01C9B073307223E
:104DD00093431A0008321C9204940A9A0392524692
:104DE00002925C681B680093019443463A0059465E
:104DF0002800FFF765FC0700119B0133119319E6AA
:104E000020231C43E1E7672801D0472802D18023F3
:104E10001B011C43452801D0472801D120231C43F6
:104E20001C9B0733072293431A0008321C920494F8
:104E30000A9A0392524602925C681B68009301949E
:104E400043463A0059462800FFF730FA0700119B05
:104E500001331193EEE502231A00224092462342C9
:104E60001FD001241C9B1A1D1C927A1C9146187895
:104E700043463A005946A8475346002B16D1119B8A
:104E8000013311934F46D5E5561C43465946202021
:104E9000B847230032005C1C9D42F5D83D00170046
:104EA000E0E701233A002F000A9DF4E74A46A946AD
:104EB0000A9D06E0571C434659462020C847340047
:104EC0003A00661CA542F5D84D469146D7E71C9B93
:104ED0001A1D1C921B6899465346002B00D1013BBA
:104EE0004E4601E0013613003278002A02D05A1EE5
:104EF000002BF7D14B46F21A10928023DB002600DC
:104F00001E401C4203D0524501D953461093022340
:104F10001A0022400B92234205D03A0037004C463B
:104F2000A946554620E03A00109B5F46B3462E0046
:104F300006E0551C434639002020B04723002A00D4
:104F40005C1C0A999942F4D835005E46BB46109421
:104F500037004C46A946554606E01D000134561C54
:104F600043465946C84732002078002804D0002F15
:104F7000F4D06B1E002DF0D117004D460B9B002B7B
:104F800003D1119B0133119354E50A9F109B06E056
:104F9000561C434659462020A847230032005C1C7B
:104FA0009F42F5D81700ECE721231C431C9B1A1DD8
:104FB0001C921B68009305940823049353460393A3
:104FC000102302930023019343463A0059462800D8
:104FD000FFF79CF80700119B013311932AE57C1C15
:104FE00043463A0059462520A847119B01331193A7
:104FF00027001FE57C1C43463A005946A847119BF1
:1050000001331193270015E50A4B9A4610E5AA468D
:10501000474502D343465A1E00E03A0043465946EC
:105020000020D047380013B0F0BCBB46B246A946BA
:10503000A046F0BD193F001000B585B00290039165
:105040000121009313004A4202A90248FFF7E2FC43
:1050500005B000BD1B3F001001480421014B18475B
:10506000300200208950001010B5010018231B8861
:1050700014221088984710BD10B5010018231B8812
:1050800016221088984710BDF0B5C64600B5070037
:105090000E0000250123984600E00135B5420AD2F2
:1050A000AC003C192068FFF7DFFF20600028F4D136
:1050B00000239846F1E7404680BCB846F0BD0000AA
:1050C000124A936F9B0815D29066D166002905D0CD
:1050D000FFE7FFE7FFE7516F106F704704B58021CE
:1050E0000906C2175140002800D0C84301F0D8FB80
:1050F000002104BDF0B5146E556E576F166FFFF7A3
:10510000E3FF1466556657671667F0BD000000D0D0
:10511000114A936F9B0813D210665166002905D07F
:10512000FFE7FFE7FFE7516F106F704704B50028F6
:1051300001D00020C04301F0B3FB002104BDC046F4
:10514000F0B5146E556E576F166FFFF7E5FF1466D6
:10515000556657671667F0BD000000D094464E4A6A
:10516000926F9208624601D230E0C046F0B54A4ED6
:10517000B56F6D08FCD3346E756E776F366F00F0C7
:1051800025F89446444A1466556657671667624682
:10519000F0BDC0469446404A926F9208624601D2E2
:1051A00058E0C046F0B53C4EB56F6D08FCD3346E88
:1051B000756E776F366F00F04DF89446364A146678
:1051C0005566576716676246F0BDC046002B24DB64
:1051D00011D000293EDA00B5C943404200D1013167
:1051E00000F038F8C943404200D10131DB4352425C
:1051F00000D1013300BD002AEBD1002801D10029E4
:1052000005D00020C90FC90701D1C043410800B52E
:1052100001F03EFB0022002300BD00B500290ADB9F
:10522000DB43524200D1013300F014F8C94340423D
:1052300000D1013100BDC943404200D10131DB43FF
:10524000524200D1013300F005F8DB43524200D155
:10525000013300BD002923D1002B18D1002A0CD026
:10526000BC460D4F38667A6600210023FFE7FFE752
:10527000FFE77A6F386F67467047002801D007480C
:10528000010000B501F004FB0022002300BD020074
:105290000B00002000217047000000D0FFFFFFFF3F
:1052A000002B00D0BFE0130C28D1002AE7D080B437
:1052B000114F39667A66FFE7FFE730B4040C7B6F65
:1052C000396F1B0423433B667A66FFE7FFE7FFE77E
:1052D000C04684B27B6F3D6F1B0423433B667A66F6
:1052E000FFE7FFE7C04600232C042D0C7A6F386FD0
:1052F00000196941B0BC7047000000D0F0B5944679
:105300000025140E01D112020835140F01D112012B
:105310000435940F01D192000235D40F01D152000F
:105320000135D40B0134254F7C66254C3C660E0CB0
:1053300093B2FFE7FFE7FFE73C6F6643360C770366
:10534000BE467343DF0B5B04C01AB941130C7343B1
:10535000DB18C91ACE086643360CB64493B27343C1
:105360001F0F1B01C01AB941130C73431F0B1B0500
:10537000C01AB941860D8F023E436643360C092D93
:1053800024DB520A7243801A7703460A6643360CBE
:1053900016235B1BDE40DF40BF1964466643821B59
:1053A0007046043506330100D940A840C01900D327
:1053B0000131A24206D20023F0BD0000000000D05F
:1053C000FFFFFFFF121B0130F3D3F1E709277F1B1B
:1053D000FE406446A2B27243801A00D20139220C08
:1053E0007243130C1204821A99410B007046043563
:1053F00013370100F940A840801900D30131002B78
:1054000002D1A2420AD2F0BD013000D30131121BF9
:10541000FAD2013BF8D1A24200D2F0BD013000D354
:105420000131121BF7E7F0B51C0C00D080E00CB482
:1054300000251C0A04D11B02160E33431202083544
:105440001C0B04D11B01160F3343120104359C0BB6
:1054500004D19B00960F334392000235DC0B02D13E
:1054600092185B4101351C00971864410134464F86
:105470007C66464C3C660E0CFFE7FFE7FFE7C04644
:105480003C6F6643360C7703BE4697B27743C01B2A
:1054900000D20139C01B00D201399FB27743C91B2A
:1054A000C91B170C77437E04FF0B801BB941CE0844
:1054B0006643360C0C2D33DBB644120B1F053A4302
:1054C0001B0B97B27743C01B00D201399FB27743C1
:1054D000C91B170C77433E043F0C801BB941860D56
:1054E0008F023E43664329277F1BFE400C3D7746D3
:1054F000AF40BF1930BCA2B2ABB272437343801A43
:105500009941220C7243130C1204801A9941020033
:105510000B000137001BA941F9D2781E0021F0BD14
:105520000C277F1BFE4077467F0BAF40FF19E0E75B
:1055300000245D1C07D0144F7D663966FFE7FFE746
:10554000FFE7FFE73C6F95B29EB265436643401BA1
:10555000B141150C1E0C6543664336042F0C3E43C7
:105560002D04401BB141994204D202000B002000DF
:105570000021F0BD01D19042F7D3801A9941013446
:105580009942F2D3F6E70000000000D0FFFFFFFFD2
:1055900048404140484018B41B4B5B68FC460193AF
:1055A00008BD04DF8358001018B4174B1B68FC4675
:1055B000019308BD00DF8D5800109446134A926F86
:1055C000920809D2624618B40F4BDB68FC4601937F
:1055D00008BD0CDF455B00100C4AF0B5146E556E2B
:1055E000576F166F6246FFF7EEFF084A146655665E
:1055F00057671667F0BD18B4034B9B68FC460193D0
:1056000008BD08DFE95900102C040020000000D07C
:10561000FFB550404240504059404B40594000E097
:10562000FFB5154F4C00640D03D0BC4204D10C03F0
:1056300014D80020090D09055C00640D03D0BC429C
:1056400004D11C030AD800221B0D1B0501264B4068
:1056500009D44B4003D58B4200D18242FFBD994211
:10566000FCD19042FFBD0B43DB1803431343F5D03D
:10567000C9434918FFBD0000FF07000000B5FFF750
:10568000CFFF804100BDC04600B5FFF7C9FF01D97B
:10569000002000BD012000BD00B5FFF7B9FF01D912
:1056A000002000BD012000BD00B5FFF7B1FF804123
:1056B00000BD012040054A00121804D85A001218F3
:1056C00001D800207047012070470020704700007B
:1056D0000021002805D17047C1174840401AFAD070
:1056E000C90713B5064B1B6898470CBC441CA24065
:1056F0001005120B0349091B09051943114310BD7D
:105700002C0500201F04000010B54C00620D802302
:10571000D218DB00D21A5B057E2A10DD9E3A13DA1E
:10572000CC170903490819435242D140640001349F
:105730001532202A05DAD0400843604310BD00200E
:1057400010BD0846604310BDC80FC018013810BD19
:1057500018B4044B5B6AFC46019308BD24DFF55C7A
:10576000001000002C04002018B4044BDB6FFC4632
:10577000019308BD7CDF755D001000002C04002043
:1057800070B513231C78012C14D0012C14DC022CCE
:1057900002DC1F4A1F4B9A641F48FFF765FC1F4B32
:1057A000186070BD99001A481A4A885001331F2B9F
:1057B000F8D9EAE70023FAE71948FFF75DFC05008E
:1057C0001848FFF759FC023803789B007F2B19DD3E
:1057D000802229000F4800F017FE022CD7D1124B6F
:1057E0001A88B5231B029A4209D1104B1A88104B14
:1057F0009A4204D10F4B1A880F4B9A42C7D000200F
:10580000FDF7C2FF0D4B0E4A32210E48FDF722FF75
:10581000495800102C0400204C3300002C050020B7
:10582000534400005346000054380000D8380000AC
:10583000494600009C3800005946000038760010A8
:10584000D87600109876001007B56046002800D181
:1058500000BE01880A0A0230DF2AFAD1C9B28208E2
:1058600004D3028840880004104300E00068024A24
:105870005050039007BD00002C0400200FB403BC5F
:105880000CBCF0B50124E407634000E0F0B50C0D5A
:10589000CF0F661E3605891B640503D3C9434042FA
:1058A00000D30131640D03D0661CF60A07D0E41B57
:1058B00000207F00791C89078912803C24031D0D7C
:1058C000DF0F6E1E36059B1B6D0503D3DB43524273
:1058D00000D301336D0D03D06E1CF60A07D0ED1B0B
:1058E00000227F007B1C9B079B12803D2D032F1BFA
:1058F000661B58D4A446202E46DA20371400BC403C
:105900001D00BD40F24033412A4380185941CB0F5E
:1059100005D0C943C0430022644250415141624610
:105920004D0D28D10D0D07D100281FD0241940415D
:105930004941013A0D0DF9D0640006D3013000D37E
:105940000131002C01D140084000013A0BD4941CD5
:10595000E40A04D112051144DB071944F0BDD9074C
:10596000204B194300E0D9070020F0BD0029DDD10C
:10597000002CDBD1F0BD0132C6074008CD0728431B
:105980004908002EE1D0D9E73C2E29DA203E4037E5
:105990001400BC4000D00124F24014431A00BB4064
:1059A0001C43D317ACE7AC46202F08DA203604009E
:1059B000B4400D00B540F84039412843A5E73C2FDD
:1059C0000CDA203F40360400B44000D00124F840F7
:1059D00004430800B1400C43C117EAE71000190066
:1059E000002494E70000F07FF0B50C0D661E36052C
:1059F000891BE60A6405640D02D0651CED0A04D01B
:105A0000002001210905803C2403A4461C0D671ECB
:105A10003F05DB1BE70A6405640D02D0651CED0A37
:105A200004D0002201231B05803C240377406444FA
:105A300097B484B296B27443070C7E43150C6F433F
:105A400080B26843361802D3012000043F183004A6
:105A5000350C00197D41844688B29AB250430C0C33
:105A600062431F0C7C438EB27E43921902D30126FF
:105A70003604A4191604170C3618674101BC81B20C
:105A80009AB25143040C62431B0C5C4380B25843EE
:105A9000121802D30120000424181004130C40181B
:105AA00063412D185E410020474106BC88B293B285
:105AB00058430C0C6343120C544389B251435B1896
:105AC00002D301210904641819041A0C091862414F
:105AD0006D1856410020474118BCF902720D114360
