:020000041000EA
:1000000000B5324B212058609868022188439860DF
:10001000D860186158612E4B002199600221596106
:100020000121F02299502B49196001219960352056
:1000300000F044F80222904214D00621196600F024
:1000400034F8196E01211966002018661A6600F04E
:100050002CF8196E196E196E052000F02FF8012189
:100060000842F9D1002199601B49196000215960AB
:100070001A491B48016001219960EB211966A021F2
:10008000196600F012F800219960164914480160C1
:100090000121996001BC002800D000471248134993
:1000A000086003C880F30888084703B5996A0420EC
:1000B0000142FBD001200142F8D103BD02B5186610
:1000C0001866FFF7F2FF186E186E02BD00000240BE
:1000D000000000180000070000035F00212200005C
:1000E000F4000018222000A00001001008ED00E03C
:1000F00000000000000000000000000074B24E7A12
:1001000000200420F7010010C3010010C5010010F9
:10011000C1010010C1010010C1010010C101001097
:10012000C1010010C1010010C1010010C701001081
:10013000C1010010C1010010C9010010CB01001065
:10014000CD010010CD010010CD010010CD01001037
:10015000CD010010CD010010CD010010CD01001027
:10016000CD010010CD010010CD010010CD01001017
:10017000CD010010CD010010CD010010CD01001007
:10018000CD010010CD010010CD010010CD010010F7
:10019000CD010010CD010010CD010010CD010010E7
:1001A000CD010010CD010010CD010010CD010010D7
:1001B000CD010010CD010010CD010010CD010010C7
:1001C00000BE00BE00BE00BE00BE00BE00F04BF888
:1001D000103800BEF2EB8871087400102C74001007
:1001E0003402001090A31AE700202149086006C8D5
:1001F00081F3088810471F48006800282FD10DA4FC
:100200000ECC002902D000F012F8F9E71A491B4A77
:10021000002000E001C19142FCD1194988471949E9
:1002200088471949884700BEFDE701C901C29A42C3
:10023000FBD370472C740010C00000208002002007
:10024000EC7500100000042000000420EC75001084
:1002500000100420001004200000000070470B482C
:1002600004F016FD0047EFF30580C0B270470000B0
:1002700008ED00E0000000D08002002060060020B1
:10028000B9320010E51D00107532001057560000FD
:1002900006005250ABB36053787300100600525002
:1002A000861C030288730010060052505422A29D3F
:1002B0009473001005005250DE65F468EC75001070
:1002C000F8B5C04610B5064C2378002B07D1054B76
:1002D000002B02D0044800E000BF0123237010BDB2
:1002E0008003002000000000F8640010044B10B5EB
:1002F000002B03D00349044800E000BF10BDC046F6
:100300000000000084030020F864001030B583B0C2
:100310000C00002313E06B46DA1D1570002106E087
:1003200083699B06FCD413780360013101320029F4
:10033000F6D023780D3B5A425341DBB20134257885
:10034000002D29D0002BE6D1144B984213D0002366
:100350005B00134A9B5EAB420FD06B46DA1D1570F3
:1003600000210029E5D183699B06FCD41378036042
:1003700001310132F5E70123EAE76B46DA1D0D236F
:10038000137000210029E8D183699B06FCD41378FF
:10039000036001310132F5E703B030BD0080034056
:1003A00050060020F0B583B0CDE0864B1B6803708B
:1003B00001310130002904D1824B9B69DB06FBD45B
:1003C000F3E76B46D97900237F4D33E06B46D81DA8
:1003D0000670140004E006787A4B1E600134013088
:1003E000002C21D1774B9B699B06FBD4F3E76B462E
:1003F000D81D0D230370140004E00778714B1F60B3
:1004000001340130002C1FD16E4B9B699B06FBD43D
:10041000F3E76C4CA469A406FBD41E78694C2660F3
:10042000013001330028F4D02B780D3B5842434172
:10043000DBB201352E78002E0BD0002BC6D1634BDA
:1004400000201B5EB342D2D06B4607331E701000F3
:10045000E8E75E4B00201B5E8B420FD06B46D81D39
:1004600001701400002C1BD1564B9B699B06FBD4DA
:100470000578544B1D6001340130F3E76B46D81DFD
:100480000D230370140004E005784E4B1D60013409
:100490000130002CE2D14B4B9B699B06FBD4F3E768
:1004A00000234B4D26E06B46D81D06701400002C2F
:1004B0001AD1444B9B699B06FBD40678414B1E60C6
:1004C00001340130F3E76B46D81D0D23037014008F
:1004D000002C19D13B4B9B699B06FBD40778394B09
:1004E0001F6001340130F3E72B780D3B5842434144
:1004F000DBB201352E78002E16D0002BD3D1334B32
:1005000000201B5EB342DED06B4607331E70100026
:100510000028E9D12B4CA469A406FBD41E78294CF1
:10052000266001300133F3E72A4B1B78002B1CD0E7
:10053000262913D0284803689A00D2185300036074
:1005400030395B1803601F4B9B6910210A001A4069
:10055000194235D111006B46D81D2BE71F4B0122E4
:100560001A701C4B00221A70EDE75039CBB2232BC6
:10057000E9D899001A4B5B589F461A4B01221A7012
:10058000E1E7184B02221A70DDE7164B03221A70BE
:10059000D9E7144B04221A70D5E7124B00221A70C7
:1005A000D1E7104B05221A70CDE70E4B06221A70C8
:1005B000C9E7084B01221A70074B00221A60C2E7F4
:1005C00003B0F0BD00400340F86400105006002066
:1005D000F865001058060020B40100205C060020D9
:1005E00004650010B0010020F0B5C64600B5061C39
:1005F0000F0014001D0006AB1B889846080005F08C
:1006000092FA011C301C05F032FA061C4346581BB6
:1006100005F08EFA311C05F04AFA061CE01B05F0C5
:1006200087FA011C301C05F02CFA041C280005F088
:100630007FFA211C05F020FA05F0CEFA80B280BCCA
:10064000B846F0BD10B596210F4C8901200001F08D
:1006500079FD0221012001F085FC0221002001F03A
:1006600081FC0A49142003F03DF80121142003F015
:1006700029F85023A363636B38221A40044980236E
:100680005B010B431A6010BD00400340A50300103E
:100690003440034010B505F0BDFE1F211C2001F0C1
:1006A00061FC002200211C2001F074FC00211C20B0
:1006B00001F08AFC0C4B1A6880239B015340E02216
:1006C000D2011340094A13601A2001F095FCD0248E
:1006D00024068023DB0463621B2001F08DFC802351
:1006E0001B05636210BDC04600C0044000D004403A
:1006F000F8B5D0231B06802212055A61642002F04F
:100700002BFA144B04221A60134B1B68DB05FBD534
:10071000114B5B689BB2D0221206802109059161C2
:100720000E4A934212D80024022C11DCD026360641
:100730008027FF047761FA256D00280002F00CFA8B
:10074000B761280002F008FA0134EDE70120F8BD96
:100750000020FCE700E0044000C004401617000041
:10076000F0B583B00400026A038AD31A63330ADB4C
:10077000038AD21A632A06DCFE218905406905F046
:1007800076F9606105E0FC218905606905F074F97E
:1007900060616669A06A05F0CBF9051C011C301C7C
:1007A00005F0B6F9002800D065616669606A05F059
:1007B000BFF9051C011C301C05F0B0F9002800D061
:1007C0006561637E002B5DD1206A238A9BB29842CB
:1007D0005ADD656905F0ACF9291C05F048F905F00A
:1007E000C9F92062256A208A281A05F0A1F96669EC
:1007F00080231B06F11805F091F900280BD0208A00
:10080000281A05F095F9011C301C05F087F900281D
:1008100001D0238A2362237A002B43D06668237891
:1008200001251D40278C96231B010093324BB422D7
:1008300000213248FFF7D8FEC71BBFB2C01980B2F3
:10084000E76805F075F9391C05F016F905F0C4F9EB
:1008500080B2B3009B199B00294A94466344002D43
:100860001CD010229040002D1AD0264A196848400A
:1008700010408022520113431860238A9BB2226ADF
:100880009A4236D003B0F0BD656905F051F9291CD4
:1008900005F0F2F805F06EF92062A3E72A00E1E71F
:1008A000194AE3E76668237801251D40E768206A56
:1008B00005F03EF9391C05F0DFF805F08DF980B23E
:1008C000B3009B199B000E4A94466344002D0CD044
:1008D00010229040002D0AD00A4A19684840104062
:1008E0008022520113431860C7E72A00F1E7064A45
:1008F000F3E701236376C5E7260200000000B44257
:100900000C0005400000FFFFFFFF0000F0B5DE46D1
:1009100057464E464546E0B5B5B0059009910A9256
:100920000B93070005230293029B002B00DA91E052
:1009300000253D7200229146FA6001263E767E76C1
:100940002C203D548122D2057A611421796204243D
:10095000A246BC62C74CA3463C623024A046B844C1
:10096000444625724C46FC634446267666763C0037
:100970005C3425707A6479655446BC655C463C6598
:1009800082233B661E3B7B665F3BBB6619AC2572D0
:100990004B46E36026766676255462616162534673
:1009A000A3625B4623620223237010392A3801F0C8
:1009B000D9FA2278520807231A40626093009B18E4
:1009C0009B00AD4884466344AC481861626893005C
:1009D0009B189B006344AA4A5A6025722D2221006D
:1009E000380005F025FB25724B46E36026766676D7
:1009F0002C2025548122D205626114216162514666
:100A0000A16259462162032323700421293801F091
:100A1000A9FA2278520807210A40626093009B18C5
:100A20009B0095498C466344944818616268930022
:100A30009B189B006344924A5A6025722D22210024
:100A4000404605F0F5FA424616766C37029B013BAC
:100A5000029369E78B49059C2300A22292009446E9
:100A600063440A881A808A789A700431032220002D
:100A7000854B9C46604405F0DBFA0023834AA3546F
:100A80000132A3500432A354002792E0DBB2079353
:100A9000099B9B5C9B460A9B9B5C98467B000B9A40
:100AA000D15C0291944663445B78069319AB0022B3
:100AB0001A720024A146DC600121197659762C2493
:100AC000A2461A558124E405A4465C6114205862AC
:100AD00004269E62674D1D6238241A554C46DC631D
:100AE000482419550134195513341A5564465C6469
:100AF00058659E651D6582241C661E3C5C665F3CD5
:100B00009C660DAC22724B4610932176617653465B
:100B1000E25463461293169017961595029805F0C5
:100B200002F810905B46023BDBB20D2B54D919A999
:100B30000DAC0B00220023CA23C323CA23C323CA3C
:100B400023C303CA03C312781A700023237200223E
:100B500010920122227662762B32A3548123DB0588
:100B6000129314231693103B1793424B1593069838
:100B700004F0D9FF10904346023BDBB20D2B48D95D
:100B800019A90DAA25AB31CA31C331CA31C331CA43
:100B900031C311CA11C312781A704823079ACA5474
:100BA0006C207843059B9C4660446C2205F040FA1B
:100BB00001373A00052F49D8F90F7818012303406F
:100BC0005B1A013B59424B41DBB208930123032FCF
:100BD00000DD5BE7002359E75B462370D8B20421B0
:100BE00001F0C0F92278520807231A40626093008E
:100BF0009B189B00204A94466344204A1A6162680D
:100C000093009B189B0063441D4A5A60089B237203
:100C10008DE743462370D8B2042101F0A3F922786E
:100C2000520807231A40626093009B189B00124AE7
:100C300094466344114A1A61626893009B189B00B2
:100C400063440F4A5A60089B237299E70022059873
:100C5000032A0ADC6C235343C318502119661E393A
:100C600059667D3199660132F2E70026350033E09E
:100C700032007FE0C305000000000540204E000068
:100C8000D9070000FC6500108B0200009B020000E9
:100C9000B64A196848401040802252011343186038
:100CA00001225C23E254616B8B005B189B00B0490E
:100CB0008C46634419688A43802149010B431A60BA
:100CC00027003037E0692C23FB5C002B00D07EE04E
:100CD000C82001F041FF0135052D00D93EE16C240B
:100CE0006C43059B9C466444626893009B189B0080
:100CF0009F4A944663441A6801219143802252011D
:100D0000134319609B48E06196231B0100939A4BA3
:100D1000B4220021FFF768FC2082238A2362237A11
:100D2000002B2CD06768237801261E40238C99461F
:100D300096231B010093904BB42200218D48FFF7AE
:100D400053FC4B46C31A9BB2C01880B2E368994665
:100D500004F0EEFE494604F08FFE04F03DFF80B241
:100D6000BB00DB199B00854A94466344002E00D1EA
:100D70007EE710229040002E8AD0814A89E767687A
:100D8000237801261E40E3689946206A04F0D0FECD
:100D9000494604F071FE04F01FFF80B2BB00DB196E
:100DA0009B00764A94466344002E0CD0102290405B
:100DB000002E0AD0724A1968484010408022520121
:100DC000134318606CE73200F1E7684AF3E704F078
:100DD000D1FE04F095FA00226A4B04F0F0F904F019
:100DE000D7FA041C002104F093FE00286AD166495A
:100DF000201C04F05CFE04F01BFF04F0FDFE02006A
:100E00000B006248624904F0DAF904F0C1FA3B7E53
:100E1000002B5CD004F0E8FF5B4904F032FE211C9B
:100E200004F025FEF861F86904F0D6FEC4B2200093
:100E300004F079FEF861B42C00D949E7200004F0F1
:100E400072FEF86196231B0100934B4BB4220021E4
:100E5000FFF7CAFB38823B8A3B623B7A002B56D0B5
:100E60007E683B7801241C403B8C984696231B01EE
:100E70000093414BB42200213E48FFF7B5FB4346A7
:100E8000C31A9BB2C01880B2FF6804F051FE391C2F
:100E900004F0F2FD04F0A0FE80B2B3009B199B00A9
:100EA000364A94466344002C2DD010229040002CEA
:100EB0002BD0334A19684840104080225201134316
:100EC000186005E780231B069C4664448FE704F006
:100ED0008BFF2D4904F0D5FD04F08EFE02000B00BF
:100EE00000202C4904F06BF902900391201C04F0BF
:100EF00083FE02000B000298039904F069F904F0E4
:100F000047FAF8618FE72200D0E7184AD2E77E68F7
:100F10003B7801241C40386AFF6804F009FE391C44
:100F200004F0AAFD04F058FE80B2B3009B199B00A8
:100F3000124A94466344002C0CD010229040002C9E
:100F40000AD00F4A196848401040802252011343CA
:100F50001860BDE62200F1E7044AF3E7059835B0D2
:100F6000F0BCBB46B246A946A046F0BDFFFF00005C
:100F7000000005400000B442260200000C000540BD
:100F80000000FFFF0080564021F98E3C333333339D
:100F90003333FB3F00806640F0B5CE46474680B510
:100FA00083B00400062909D88900C54B5B589F46C9
:100FB0000023A72292008350C24A835403B0C0BCCE
:100FC000B946B046F0BD0023052B08D8BE4AD15C17
:100FD000E218BE488446624411700133F4E7B94B0D
:100FE0000522E2540133043AE250E7E7002307E028
:100FF000B74AD15CE218B5488446624411700133A7
:101000000C2BF5D90123AF4AA3540132A350A823D6
:101010009B00E35C002B0AD1052BCFD8AA4AD15CF8
:10102000E218AA488446624411700133F4E7A82309
:101030009B000022E254C1E7002307E0A54AD15CEF
:10104000E218A24884466244117001330C2BF5D992
:101050009C4B0222E2540133013AE2500433E35C38
:10106000002B0AD1052BA9D8974AD15CE2189748E2
:101070008446624411700133F4E7A8239B000022E8
:10108000E2549BE7002307E0934AD15CE2188F48C3
:1010900084466244117001330C2BF5D9894B03222D
:1010A000E2540133023AE2500433E35C002B0BD1EB
:1010B000052B00D982E7844AD15CE2188348844634
:1010C000624411700133F3E7A8239B000022E2542D
:1010D00074E7002307E0814AD15CE2187B4884462C
:1010E0006244117001330C2BF5D9764B0422E25483
:1010F0000133033AE2500433E35C002B0BD1052BA0
:1011000000D95BE7704AD15CE218704884466244BB
:1011100011700133F3E7A8239B000022E2544DE74E
:10112000A7239B000022C250664B0632C254002601
:101130003AE03A0076E06A4A78E06B6898462B78A5
:1011400001271F40286AED6804F0F2FC291C04F016
:1011500093FC04F041FD80B243469B0043449B0056
:10116000604A94466344002F0CD010229040002F18
:101170000AD05D4A1968484010408022520113434A
:1011800018605AE03A00F1E7554AF3E73A0091E077
:10119000534A196848401040802252011343186096
:1011A000C82001F0D9FC0136052E00D906E76C25D0
:1011B000754365194D48E86196231B0100934C4B1C
:1011C000B4220021FFF710FA28822B8A2B622B7A97
:1011D000002BB2D06B6898462B7801271F402B8CD0
:1011E000994696231B010093414BB42200213F48AE
:1011F000FFF7FAF94B46C31A9BB2C01880B2ED68EC
:1012000004F096FC291C04F037FC04F0E5FC80B2E5
:1012100043469B0043449B00324A94466344002F5C
:1012200087D010229040002F85D02F4A196848405F
:10123000104080225201134318606C2575433035ED
:1012400065192A48E86196231B010093284BB422B4
:101250000021FFF7C9F928822B8A2B622B7A002BF9
:1012600048D06B6898462B7801271F402B8C9946F5
:1012700096231B0100931E4BB42200211B48FFF74D
:10128000B3F94B46C31A9BB2C01880B2ED6804F0A4
:101290004FFC291C04F0F0FB04F09EFC80B2434696
:1012A0009B0043449B000F4A94466344002F00D1A7
:1012B0006CE710229040002F00D169E70A4A68E7E6
:1012C000946500109B020000246600108E0200004E
:1012D0003C66001004660010146600102C660010B6
:1012E000FFFF00000C0005400000FFFF0000B442BB
:1012F000260200006B6898462B7801271F40286A59
:10130000ED6804F015FC291C04F0B6FB04F064FC45
:1013100080B243469B0043449B000B4A944663447F
:10132000002F0CD010229040002F0AD0074A1968D5
:1013300048401040802252011343186030E73A00C1
:10134000F1E7034AF3E7C0460C0005400000FFFF49
:10135000FFFF0000F0B5DE4657464E464546E0B575
:1013600087B00400A7239B00C358C318C24A944601
:1013700063441B780E2B2ED89B00C04AD3589F463F
:10138000BF4BC15C052926D00533C35C002B22D09E
:10139000FFF702FE1FE00027052F17D86C257D43BD
:1013A00065196B6ED8B204F0BEFB061C96231B01B8
:1013B0000093B44BB4220021FFF716F92882EE61A6
:1013C00000236B765C352B700137E5E7A72292008E
:1013D000A3580133A350A7239B00E3580C2B03D938
:1013E000A7239B000122E25007B0F0BCBB46B246E7
:1013F000A946A046F0BD0026070033E080231B0667
:101400009C46654446E004F0EFFC9F4904F039FB3C
:1014100004F0F2FB02000B0000209C4903F0CFFE19
:1014200002900391281C04F0E7FB02000B000298D5
:10143000039903F0CDFE03F0ABFFE061E06904F037
:10144000CBFBC0B204F06FFB051C96231B0100937D
:101450008C4BB4220021FFF7C7F82082E5610023FE
:1014600063760136052E32D86C237343FB181C00BB
:101470003034D86904F07EFB03F042FF0022844B35
:1014800003F09DFE03F084FF051C002104F040FBE7
:101490000028B3D17C49281C04F009FB04F0C8FBE8
:1014A00004F0AAFB02000B007A487B4903F087FE98
:1014B00003F06EFF237E002BA5D004F095FC72494B
:1014C00004F0DFFA291C04F0D2FAE061B6E73C0030
:1014D000A7229200BB580133BB50A8239B000122D6
:1014E000FA5478E7664BC35C0293023B5A4253417D
:1014F000DBB205930027022F40D8E3199B46A223B5
:101500009B005B441E786C256E43A619336ED8B2DF
:1015100004F009FB80465B4B994696231B019A46D3
:1015200000934B46B4220021FFF75EF83082434619
:10153000F3610023984673765C36059B3370574BF6
:101540005B441B78029A961E721E9641F6B25D436A
:1015500065196B6ED8B204F0E6FA834653460093E1
:101560004B46B4220021FFF73FF828825B46EB612F
:1015700043466B765C352E700137BCE7A72292009C
:10158000A3580133A35026E70026804634002AE002
:1015900080231B069C46654451E004F025FC3A4933
:1015A00004F06FFA04F028FB02000B00002037491A
:1015B00003F005FE02900391281C04F01DFB0200BD
:1015C0000B000298039903F003FE03F0E1FEF861BB
:1015D000F86904F001FBC5B2280004F0A4FAF86130
:1015E000B42D5DD90134052C00D9C8E06C256543C4
:1015F00045442800FFF7B4F82F003037286A9625B5
:1016000004F096FAB423009300232A011D49FEF743
:10161000EBFF04F088FA2C23FB5C002BE2D004F0F3
:10162000A9FA03F06DFE0022194B03F0C8FD03F088
:10163000AFFE051C002104F06BFA0028A8D1124966
:10164000281C04F034FA04F0F3FA04F0D5FA02008E
:101650000B001048104903F0B2FD03F099FE3B7EE9
:10166000002B9AD004F0C0FB074904F00AFA291CA9
:1016700004F0FDF9F861ABE78E020000B0650010E0
:101680009B0200002602000021F98E3C008066408B
:1016900000805640333333333333FB3F8B0200003B
:1016A000280004F040FAF86196231B010093D24B06
:1016B000B4220021FEF798FF38823B8A3B623B7AD6
:1016C000002B35D07E683B7801251D403B8C994628
:1016D00096231B010093C84BB4220021C748FEF794
:1016E00083FF4B46C31A9BB2C01880B2FF6804F058
:1016F0001FFA391C04F0C0F904F06EFA80B2B3008E
:101700009B199B00BE4A94466344002D0CD01022C6
:101710009040002D0AD0BB4A1968484010408022F2
:101720005201134318605DE72A00F1E7B64AF3E778
:101730007E683B7801251D40386AFF6804F0F8F99F
:10174000391C04F099F904F047FA80B2B3009B19F0
:101750009B00AB4A94466344002D0CD0102290406D
:10176000002D0AD0A74A1968484010408022520133
:101770001343186036E72A00F1E7A34AF3E744462B
:101780000022052A0ED86C235343E3185B7E002BFE
:1017900009D06C235343E31849331B78002B02D044
:1017A0000132EEE70123002B00D114E6A7229200BC
:1017B000A3580133A3500EE60026070033E0802330
:1017C0001B069C4665444CE004F00EFB8F4904F078
:1017D00058F904F011FA02000B0000208C4903F0C4
:1017E000EEFC02900391281C04F006FA02000B00A4
:1017F0000298039903F0ECFC03F0CAFDE061E06994
:1018000004F0EAF9C0B204F08EF9051C96231B011E
:101810000093794BB4220021FEF7E6FE2082E561B9
:10182000002363760136022E38D8BB19A22292001B
:10183000944663441A786C235343FB181C003034DD
:10184000D86904F097F903F05BFD0022714B03F0B7
:10185000B6FC03F09DFD051C002104F059F9002899
:10186000ADD16A49281C04F022F904F0E1F904F032
:10187000C3F902000B006848684903F0A0FC03F0BC
:1018800087FD237E002B9FD004F0AEFA5F4904F061
:10189000F8F8291C04F0EBF8E061B0E73C00A7225F
:1018A0009200BB580133BB5095E50025052D07D8A4
:1018B0006C20684330302018FEF752FF0135F5E701
:1018C0000022052A0ED86C235343E3185B7E002BBD
:1018D00009D06C235343E31849331B78002B02D003
:1018E0000132EEE70123002B00D174E5A72292001C
:1018F000A3580133A3506EE50027022F1CD8E3192B
:10190000474A944663441B786C255D436319986E7F
:10191000C0B23035651904F006F9061C96231B0188
:101920000093354BB4220021FEF75EFE2882EE6163
:1019300000236B760137E0E7A7229200A35801331A
:10194000A35048E5374BC35C0293013B5A425341D5
:10195000DBB205930027022F40D8E3199B46A22350
:101960009B005B441E786C256E43A619736ED8B23B
:1019700004F0D9F88046204B994696231B019A46DD
:1019800000934B46B4220021FEF72EFE30824346E0
:10199000F3610023984673765C36059B3370204BC9
:1019A0005B441B78029A561E721E9641F6B25D4346
:1019B00065192B6ED8B204F0B6F8834653460093EF
:1019C0004B46B4220021FEF70FFE28825B46EB61F6
:1019D00043466B765C352E700137BCE7A722920038
:1019E000A3580133A350F6E4002607004BE0802300
:1019F0001B069C46654463E0260200000000B442DA
:101A00000C0005400000FFFFFFFF000021F98E3CA5
:101A10000080664000805640333333333333FB3F1E
:101A20008B0200009B02000004F0DEF9E54904F09F
:101A300028F804F0E1F802000B000020E24903F06E
:101A4000BEFB02900391281C04F0D6F802000B00A4
:101A50000298039903F0BCFB03F09AFCE061E06993
:101A600004F0BAF8C0B204F05EF8051C96231B011E
:101A70000093D64BB4220021FEF7B6FD2082E5612B
:101A8000002363760136022E37D8BB19D04A94461C
:101A900063441A786C235343FB181C003034D86914
:101AA00004F068F803F02CFC0022CA4B03F087FB1B
:101AB00003F06EFC051C002104F02AF8002896D1E2
:101AC000C049281C03F0F3FF04F0B2F804F094F8C6
:101AD00002000B00C048C14903F071FB03F058FC41
:101AE000237E002BA0D004F07FF9B64903F0C9FF94
:101AF000291C03F0BCFFE061B1E73C00A722920083
:101B0000BB580133BB5066E40027022F1DD8E319F0
:101B1000A2229200944663441B786C255D436319AE
:101B2000986EC0B23035651903F0FDFF061C962390
:101B30001B010093A54BB4220021FEF755FD28821E
:101B4000EE6100236B760137DFE7A7229200A358EE
:101B50000133A3503FE4A24BC75C043F7B427B416F
:101B6000DBB29946036ED8B203F0DDFF051C974E39
:101B700096231B01984600933300B4220021FEF700
:101B800033FD2082E561002565765C234A46E254F8
:101B90007B1E9F41FBB29A46CC23E05C27006C374A
:101BA00003F0C1FF8346434600933300B422002173
:101BB000FEF71AFD38825B46FB617D762300C83351
:101BC00052461A706C377B6ED8B203F0ACFF834676
:101BD000434600933300B4220021FEF705FD38820E
:101BE0005B46FB617D7623003533FF3352461A7026
:101BF0001033586EC0B21F0003F095FF8346434672
:101C000000933300B4220021FEF7EEFC38825B46DD
:101C1000FB617D762300A133FF334A461A701033EF
:101C2000186EC0B21F0003F07EFF83464346009348
:101C30003300B4220021FEF7D7FC38825B46FB61FB
:101C40007D7683239B00E3184A461A708722920010
:101C5000A318186EC0B21F0003F065FF814643460B
:101C600000933300B4220021FEF7BEFC38824B46BD
:101C7000FB617D769E239B00E31852461A70A722D3
:101C80009200A3580133A350FFF7A5FB544BC35C4C
:101C9000043B5A425A41D2B292465A1E9341DBB299
:101CA0009946436ED8B203F03EFF051C474E96237B
:101CB0001B01984600933300B4220021FEF794FCE8
:101CC0002082E561002565765C234A46E254743340
:101CD000E05C27006C3703F026FF83464346009301
:101CE0003300B4220021FEF77FFC38825B46FB61A3
:101CF0007D762300C83352461A706C373B6ED8B2DB
:101D000003F011FF8346434600933300B4220021C1
:101D1000FEF76AFC38825B46FB617D762300353333
:101D2000FF3352461A701033186EC0B21F0003F012
:101D3000FAFE8346434600933300B4220021FEF7A7
:101D400053FC38825B46FB617D762300A133FF3371
:101D50004A461A701033586EC0B21F0003F0E3FEFB
:101D60008346434600933300B4220021FEF73CFC37
:101D700038825B46FB617D7683239B00E3184A46ED
:101D80001A7087229200A318586EC0B21F0003F089
:101D9000CAFE8146434600933300B4220021FEF779
:101DA00023FC38824B46FB617D769E239B00E31823
:101DB00052461A70A7229200A3580133A350FFF78E
:101DC0000AFBC04621F98E3C0080664026020000D6
:101DD0008B02000000805640333333333333FB3FF4
:101DE0009B02000030B5554CA54404F077FA192049
:101DF00000F002F9D0231B06802292045A62FEF7FB
:101E000021FC4F494F48FEF781FAFEF743FCFEF7ED
:101E10006FFC0022052A09D8511C4B00DBB2ACA88C
:101E200083540133AAA883540A00F3E7464BAAAAB5
:101E3000ACA901A8FEF76AFD444B197801A8FFF789
:101E4000ABF8102000F0D8F824E06C24444301AB38
:101E50009C466444626893009B189B003C4A9446ED
:101E600063441D6801210D408022520113431D600F
:101E7000646BA3001B199B0063441C68214013433F
:101E8000196001300528E0D9324800F065FE642071
:101E900000F062FEFEF72CFC002801D00020F1E7E4
:101EA0002D4B1B78002B0FD101AA2C4BD35C274A5A
:101EB00011788B4217D1D0231B06802292045A61DD
:101EC000802252025A6115E0254B1968002207E072
:101ED0006C23534301A88446634499629965013297
:101EE000052AF5D9E0E701A8FFF756F8E3E7012353
:101EF000002B19D101A8FFF72DFA142000F02CFEB9
:101F00000022052AF3D86C23534301A98C4663446D
:101F10005B7E002BECD06C235343634449331B7826
:101F2000002BE5D00132ECE7D0231B06802292047F
:101F30009A61802252029A61A9E7C04644FDFFFFE0
:101F4000EC650010004003409C030020B00100201D
:101F500000000540102700005C0600209B020000E6
:101F6000B401002010B58300084A944663441C68FD
:101F700040226240C02414408022520113431C605E
:101F8000C000034B9C466044416010BD04C001404A
:101F90000040014080000B4B9C46604400290DD05E
:101FA0000823002A0CD004221343026853400C2259
:101FB0001340802252011043036070470023F0E772
:101FC0000022F1E704C00140002909D08000094B3C
:101FD0009C46604480239B01184340230360704764
:101FE0008000044B9C466044C0239B01184340235F
:101FF0000360F4E704C0014010B501238340D02200
:102000001206936293610521FFF7ACFF10BD00003B
:10201000EFF3108072B6034B1B68002BFBD0BFF3AD
:102020005F8F70472C0100D0BFF35F8F024B0022FF
:102030001A6080F3108870472C0100D0F8B50600B4
:102040000C001500FFF7E4FFE308F718F15C072226
:102050002240012393400B4205D1DBB20B433B707E
:10206000FFF7E2FFF8BD2100280001F0A1F9000010
:10207000034B1B6802201840431E9841C0B27047B2
:1020800000C00640002307E0054A9A189200BFF3FB
:102090005F8F0021116001331F2BF5D97047C046B7
:1020A00040000034054A1078431CDBB21370172B34
:1020B00002D9130010221A707047C046B8010020E0
:1020C00070B504000D00062001F08CFAC000290054
:1020D00002F032FEC60908D00E4B9E4217D87F236D
:1020E000184001303500460800E001256562A6620F
:1020F0002C3480208001044300232360062001F05B
:1021000071FA8000A901891902F016FE70BD00263F
:10211000014DEBE7FEFF0000FFFF0000002909D0A2
:102120000A22064B9C466044434258414000044BFF
:10213000C252704780225200F3E7C0460080FCBFC5
:102140005006002070B505000C00062001F04AFA88
:10215000002829D0164B9D4227D08022D203154B50
:102160001A60154B1A60154B9B6811009943FAD100
:1021700000212800FFF7D2FF21002800FFF7A0FF71
:102180002C002C34E96A60224A406E2111408022E2
:102190005201224311600A4B2B6380239B0123438E
:1021A00010221A600323AB6470BD80221204D6E7AC
:1021B0000080034000E0004000F0004000C000400C
:1021C0000103000070B505000C00080000F014FDCC
:1021D000200000F0F9FD0849200000F039FDFFF76C
:1021E00061FF064B9C466044800068602C75A4002B
:1021F000034BE55070BDC046092500104000003477
:10220000280400200A4B1A68EFF3108172B6136895
:10221000002BFCD0BFF35F8F054B1B68BFF35F8FB4
:1022200000221A6081F3108840BF0020002170470F
:102230003C06002010B5002922D003681B7B994280
:102240001ED8174B9C466144090183689C46614433
:102250000C684968002A19D003681B7B9A4215D87C
:1022600083680F488446624412019A1810685368C4
:10227000020001208B4201D80ED00020C0B210BD58
:10228000084B094A3B21094800F0F8FF054B064A74
:102290003B21064800F0F2FFA242EFD8EDE7C0462E
:1022A000FFFFFF0F90660010FC68001060660010D2
:1022B00010B500291ED0037B99421BD84B005B1838
:1022C000033B0468A4466344002919D0002A1DD0AA
:1022D000914221D0002A25D0047BA24222D8046852
:1022E00050008018033820188170197800291FD1F8
:1022F0001A7010BD104B114A6921114800F0BEFF41
:10230000104B114A70310E4800F0B8FF0F4B0E4AC7
:1023100071210B4800F0B2FF0D4B0B4A72210848A7
:1023200000F0ACFF044B054A6921054800F0A6FF08
:1023300041701A70DDE7C046C4660010686900107D
:10234000E066001020670010446900102C67001040
:102350003867001070B506000D001400002914D075
:10236000002A14D0806873689847002806D022009D
:1023700029003000FFF79CFF280007E02A00210019
:102380003000FFF795FF200000E0100070BD08004E
:10239000FCE70000F0B583B00500009201930AABA2
:1023A0001C780BAB1F78002C26D003685A7B944214
:1023B00007D10123002B19D1002C3BD1200003B001
:1023C000F0BD002C0CD01A7B944209D81A68630027
:1023D0001B19033BD3189B78002BEBD00123E9E7B3
:1023E0003E4B3F4A69213F4800F048FF3E4B3F4A81
:1023F00065213F4800F042FF03689C7B002CDBD046
:1024000012D01A7B94420FD862001219033A19684D
:102410008C46624451789973002900D1D973002306
:10242000937053701370C7E72C4B2D4A69212D48C8
:1024300000F024FF002C3AD02B681B7B9C4236D83E
:102440002C4BE3181B01AA6894466344009A1A6057
:10245000019A5A60089A9A60099ADA602E68002CEC
:102460002BD030D0337B9C422DD863001B19033B0B
:1024700032689446634400229A705A701A70717BD5
:1024800022003000FFF766FF7073844200D095E7AA
:10249000287D009A019B00F023FC061E01D0002F2E
:1024A00017D00C9B002B00D188E71E7086E7124BDB
:1024B000124A3B210E4800F0E1FE114B114AA621C1
:1024C000084800F0DBFE054B054A6921054800F08D
:1024D000D5FE2868210000F04FFEE2E7C466001038
:1024E00068690010E0660010506700107469001001
:1024F00060660010FFFFFF0F90660010FC68001080
:102500005C66001058690010F0B5DE4657464E462E
:102510004546E0B58BB00990002308938200B24B8A
:10252000D658370032E0B14BB14A3F21B14800F0F4
:10253000A5FEB14BB14A3B21B14800F09FFEB14B23
:10254000B14A8C21AE4800F099FEB04BAE4A9021C2
:10255000AB4800F093FEA84BAD4A4021A84800F0DC
:102560008DFE2A686B68099800F0BAFB00239A4632
:1025700098467B68BFF35F8F00221A6086F310884D
:102580004346002B51D1002800D126E100F040FB4A
:1025900002000B1EC7DB002000210690079178681F
:1025A000EFF3108672B601680029FCD0BFF35F8F8D
:1025B000396888464C7B002C32D0BAD0097B8C42DB
:1025C000B7D8944965182D01B9688C4665442868C8
:1025D0006968801A99410029C3DC01D10028C0D163
:1025E0000021404600F0BEFDA042A8D12A686B68D9
:1025F00006920793AB689846EB689A464346002BD1
:10260000A3D0002CA7D03B681B7B9C42A3D8631EA1
:10261000FA68D35C08931B02184338610020A8E7CE
:1026200000239A4698460020A3E7089B1B022343F9
:10263000994651461800C04705000E007A68EFF32E
:10264000108B72B6136859424B41D9B2002BF9D1A5
:10265000BFF35F8F002E26DB002E52DD3B69002B7F
:1026600053D04B4572D100F0D3FA02000B1E73DB3E
:102670000100180052197341984202D804D19142C6
:1026800002D901225242D317002B6BDB00210491A7
:102690000131039102945146019141460091380065
:1026A000FFF778FE49E03B69002BD5D04B451CD1A4
:1026B000069A079B10001900521BB341994202D899
:1026C00004D1904202D901225242D317002B12DBCF
:1026D0000021049101310391029451460191414638
:1026E00000913800FFF756FE27E04B4B464A9F21EA
:1026F000434800F0C3FD3D4B3D4A3F213D4800F0BB
:10270000BDFD002E01D1002DA8D13A68002C45D086
:10271000537B9C422CD1012100293FD1D37B002B3C
:1027200042D1D473002C52D03B681B7B9C424ED8C4
:10273000FA68013C135D0133135500233B617A684D
:10274000BFF35F8F13608BF310881FE7324B2E4A65
:10275000A2212B4800F092FD244B254A3F21254819
:1027600000F08CFD214B224A3F21224800F086FDDB
:10277000002C0DD0137B9C420AD863001B19033B2D
:102780001068844663449B78002BC5D00121C3E7C1
:10279000224B234A6921234800F070FD224B234A33
:1027A000F721204800F06AFD002B0AD0117B8B42F4
:1027B00007D85900CB18033B11688C4663445C7002
:1027C000AFE7164B164A6921164800F057FD0A4B31
:1027D0000F4A40210A4800F051FD0BB0F0BCBB4647
:1027E000B246A946A046F0BD280400207867001034
:1027F000C86800109467001090660010FC68001014
:1028000060660010D0670010E0680010E8670010F4
:1028100020690010FFFFFF0FF4670010C46600106E
:1028200068690010E066001030680010346900101C
:1028300010B50A4B5B68002B04D00A21084800F051
:10284000E3FA10BD054C2300064A1021206800F071
:10285000A9FB03212000FFF7B5FCEEE7BC01002037
:102860003C0600203522001010B5064B5B68002B9B
:1028700001D0044810BD044B044A5C21044800F018
:10288000FDFCC046BC01002054680010086900101F
:1028900060660010F0B5DE4657464E464546E0B548
:1028A0008BB0804616001F00149B9A46159B9946D4
:1028B00016AB1B789B461F2302AA94466344002252
:1028C0001A7032E0002809D042461268127B90420A
:1028D00004D8421E4146C9688A5C48E0434B444ADA
:1028E0004021444800F0CAFC0798002B75D05B4695
:1028F000002B72D04946D04704000D0003000B4363
:1029000000D171E0002946DB00F082F906000F1EBD
:1029100055DB36196F41B94202D804D1B04202D911
:1029200001267642F717002F4FDB43465A68EFF334
:10293000108472B6136859424B41D9B20791002BEB
:10294000F8D1BFF35F8F1F3302AA94466344049308
:102950000023039302934B460193534600933200A6
:102960003B004046FFF716FD031EABD10200414677
:102970004968BFF35F8F00250D6084F31088002B3A
:1029800029D01F2302A98C4663441B78002BABD1AE
:1029900012021043A9E732003B00361BAF41BB4295
:1029A00002D804D1B24202D901267642F717002F8D
:1029B000BBDA114B114A3F21114800F05FFC0E4B6E
:1029C0000E4A3F210E4800F059FC0B4B0B4A3F21A9
:1029D0000B4800F053FC012040420BB0F0BCBB465A
:1029E000B246A946A046F0BD0798F6E790660010EB
:1029F000206900106066001078670010C868001039
:102A000094670010F0B587B006000F00FDF72BFCAF
:102A100000281FD106246442E517A4197D41BD4258
:102A200002D803D1B44201D900240025002D14DBC3
:102A30000494059500F0ECF802000B1E13DBA41AB9
:102A40009D41002D17DC14D03000390000F0ECF867
:102A500007B0F0BD234800F0ABFC234B234A3F21D5
:102A6000234800F00BFC204B204A3F21204800F077
:102A700005FC002CE8D0FFF7F7FE0023029301933A
:102A80001C4B0093049A059BFFF704FF002818DAFB
:102A9000DAE7002300E00023002BD5D1164B1A689B
:102AA000EFF3108172B61368002BFCD0BFF35F8F79
:102AB000114B1B68BFF35F8F00221A6081F31088EF
:102AC00020BF0499059A0D4B5B6A9A42E3D80B48E4
:102AD000806A884203D29A42DBD00123DCE70123DB
:102AE000DAE7C0467868001078670010C868001000
:102AF00094670010052200103C06002000400540AD
:102B0000F8B504000D0000F083F802000B1E10DB86
:102B100020002900801859418B4202D804D18242FA
:102B200002D901204042C117002908DBFFF76AFFE4
:102B3000F8BD064B064A3F21064800F09FFB034BB9
:102B4000034A3F21034800F099FBC0467867001014
:102B5000C86800109467001010B5FA229200002394
:102B6000002102F067FFFFF7CBFF10BD70B5EFF358
:102B700005833F2018401038EFF3108C72B6194BC4
:102B80001B68002BFBD0BFF35F8F0123190081402E
:102B9000154A5163154A12781400C440234214D0D8
:102BA000114B5C6A8300124D5B599C4206D3830033
:102BB000104C1B598A430D490A7007E00A4A031D4D
:102BC0009B0099589950002300E00023BFF35F8FCA
:102BD000044A002111608CF31088002B00D0984724
:102BE00070BDC046280100D0004005405B060020B3
:102BF00040060020A803002010B50100024A034847
:102C0000FFF71CFA10BDC0468C6900105906002061
:102C1000044B5B6A034A906A1900536A9942F9D1DE
:102C20007047C04600400540084B5B6A01E0074B17
:102C30005B6A8B42FBD301E0044B5B6A8B4203D19E
:102C4000024B9B6A8342F7D37047C0460040054061
:102C500070B504000D00EFF3108672B61B4B1B68B5
:102C6000002BFBD0BFF35F8F002D1CD0200000F0A5
:102C700031FD174B83420BD01900200000F032FDCC
:102C80000121200000F01EFD0123A340114A136022
:102C9000A400114BE550BFF35F8F0C4B00221A606C
:102CA00086F3108870BDA2000B4B0021D150012289
:102CB000A2400A490B7893430B700549200000F0AD
:102CC0003BFD0021200000F0FDFCE4E7280100D0DE
:102CD0006D2B001038600540A80300205B06002023
:102CE000F0B5DE4600B584B00400150001921E0068
:102CF0000293FFF78DFF03958E4202D84ED1854295
:102D00004CD9EFF3108B72B6274B1B68002BFBD00E
:102D1000BFF35F8F254A17780125A540EBB23B43EF
:102D20001370234B5D63221D92000199D150A200C4
:102D30002049029850501B6A2B4212D11C4B1B6C2D
:102D40002B4208D00020BFF35F8F174B00221A6080
:102D50008BF3108823E0184B184AC121184800F063
:102D60008DFAFFF755FF8E4214D802D1039B8342A0
:102D700010D80E4B1B78BB420ED00D4B1D625D630D
:102D80001F2004400123A3400E4A1360074B1F700D
:102D90001E38D8E70020D6E70120D4E7012004B090
:102DA00080BCBB46F0BDC046280100D05B060020B9
:102DB0000040054040060020B06900100C6A001079
:102DC000D469001080E200E0EFF3108C72B60B4B78
:102DD0001B68002BFBD0BFF35F8F01238340084AA1
:102DE000136208490A789A430A70BFF35F8F034B56
:102DF00000221A608CF310887047C046280100D06A
:102E0000004005405B060020024B9C46614489005F
:102E1000016070474000003410B50400FFF742F92C
:102E200001002000FFF7F0FFFF232371BFF35F8F46
:102E300010BD10B50400FFF735F901002000FFF7C1
:102E4000E3FFFF23237100236371BFF35F8F10BD86
:102E500010B500291ED0037B99421BD84B005B188C
:102E6000033B0468A4466344002919D0002A1DD0FE
:102E7000914221D0002A25D0047BA24222D80468A6
:102E800050008018033820188170197800291FD14C
:102E90001A7010BD104B114A6921114800F0EEF96B
:102EA000104B114A70310E4800F0E8F90F4B0E4AF2
:102EB00071210B4800F0E2F90D4B0B4A72210848D2
:102EC00000F0DCF9044B054A6921054800F0D6F909
:102ED00041701A70DDE7C046C4660010A46B001094
:102EE000E066001020670010906B00102C67001047
:102EF0003867001070B506000D001400002914D0CA
:102F0000002A14D0806873689847002806D02200F1
:102F100029003000FFF79CFF280007E02A0021006D
:102F20003000FFF795FF200000E0100070BD0800A2
:102F3000FCE7000010B50023437301338373037B68
:102F4000C3730123027B9A4214D9002B0CD0027B5D
:102F5000934209D85A00D218033A01688C46624459
:102F60000133DBB25370EDE70B4B0C4A69210C487F
:102F700000F084F9002A09D0924207D80168530072
:102F80009A18033A8A180023537010BD024B034A63
:102F90006921034800F072F9C4660010A46B0010A8
:102FA000E066001010B5017342608360FFF7C2FF56
:102FB00010BD000070B50400081E00D170BD0029CE
:102FC00034D0237B994231D84B005B18033B2268F5
:102FD000944663445A78002AF0D02DD0237B9A423D
:102FE0002AD853009B18033B21688C4663445D78C4
:102FF00000215970002825D0237B984222D8430015
:103000001B18033B21688C46634400215970010062
:103010002000FFF76FFF060029002000FFF7CAFF1E
:10302000020031002000FFF765FFC7E7084B094A9F
:103030006921094800F022F9054B064A6921064832
:1030400000F01CF9024B034A6921034800F016F90D
:10305000C4660010A46B0010E066001070B5050097
:103060000C001600002928D02DD0037B99422AD8C5
:103070004B005B18033B0268944663445A78002A6D
:1030800027D19A78002A2AD11978FFF793FF0300F5
:10309000002E03D0EA7B002A27D1EC73002B37D116
:1030A000002C49D02B7B9C4246D82B6861000C1920
:1030B000033C1C190023637070BD224B224A382147
:1030C000224800F0DBF8224B224A6921224800F016
:1030D000D5F8224B1C4A3A211C4800F0CFF8204B6F
:1030E000194A3B21194800F0C9F8002A0AD0297B67
:1030F0008A4207D851008A18033A29688C466244EC
:103100005470CAE7124B134A6921134800F0B6F80D
:10311000002B0BD02A7B934208D843001B18033B9B
:103120002A689446634400229A70B9E7084B094A1A
:103130006921094800F0A2F8054B064A69210648B2
:1031400000F09CF8B86A00107C6B0010C06A001098
:10315000C4660010A46B0010E0660010F06A001056
:10316000186B001070B504000A00457B2900FFF7BA
:1031700075FF6073280070BD70B50400002967D02A
:10318000437B8B420ED0002911D0037B99420ED88D
:103190004B005B18033B0268D0188378002B0CD1DE
:1031A000002056E00121FFF7DDFF012051E0294B0F
:1031B000294A6921294800F061F8002B20D0227BA0
:1031C00093421DD85A00D318033B2268D2182568B1
:1031D000EB5C8B421AD0002B1BD0227B934218D879
:1031E0005A00D318033B2268D21853788B4216D06A
:1031F000002BF0D11A4B1B4A67211B4800F03EF808
:10320000144B154A6921154800F038F843781370BB
:1032100007E0104B104A6921104800F02FF843785E
:10322000537000238370437001222000FFF716FFC4
:103230000200617B814205D02000FFF75BFE6073D6
:10324000012006E0094B074A6D21074800F016F8F7
:10325000002070BDC4660010A46B0010E066001072
:103260003C6B0010646B0010C06A0010446B0010CF
:1032700000BEFDE710B5FFF7FBFF000010B582B000
:103280000C001900002A0CD0084B002A0BD0019228
:10329000009323000200064803F014F80120FFF712
:1032A000E7FF044BF1E7034AF1E7C046B06B0010BB
:1032B000C06B0010BC6B001070B52B4B2B4A1A6012
:1032C0002B4B2C4A1A602C4B9A682A4B9343FAD109
:1032D0002A4C01E008CC9847294B9C42FAD300F0D5
:1032E00001F9234B274A1A60234B9B68DB43DB0120
:1032F000FAD1254B40229A675A671A67DA66234C3F
:1033000009E0234B234A83212348FFF7B7FF20001E
:10331000FFF782FD0834214B9C4209D22368002B21
:10332000F5D0012BEDD12000FFF783FD0834F2E743
:103330001B4CA1681B4DC022280002F079FEA5603D
:10334000FCF791FF002800D000BEFEF79BFE00F0C6
:1033500041FBFFF76DFA144C01E008CC9847134B82
:103360009C42FAD370BDC04600E00040BFCDFBFEDA
:1033700000F00040FE7F3C0000C000406C020020D6
:103380007C020020FFFFFF0100F0014064020020EA
:10339000F06B0010586C0010106C00106C020020D4
:1033A00000ED00E0000000207C02002080020020F0
:1033B0000FB400B583B0084802F052FF049B002B05
:1033C00007D005A90191180002F05AFF034802F046
:1033D00047FF0120FFF74CFF486C0010F865001014
:1033E000F8B5DE4657464E464546E0B505000F00A7
:1033F00092460A9A93424ED31A0E91461E020A9A98
:1034000000233000494601F0D9FC80466C00641965
:10341000A4002F4B9C4664446368834200D26060E2
:103420002B1FDBB29B46012B3BD9C0239B012343BF
:10343000802212011A60AB00264A9958002905D053
:10344000506901F079FC01300138FDD153465A0131
:1034500023685A40E0231A4080235B0123431A600B
:103460005A46012A28D980239B0123438022120136
:103470001A6043466360424600233000494601F02B
:103480009DFCAD00134B58510120F0BCBB46B24629
:10349000A946A046F8BD104B104A2D211048FFF751
:1034A000EDFE012FC1D1C0239B01234303221A60EB
:1034B000A368DB07FCD5C9E72168794003220A40ED
:1034C0001A60A2680123BB401342FAD0CBE7C04682
:1034D00000800040B8030020686C0010B86C001039
:1034E0007C6C001030B583B00C2000F00DFBFEF7B3
:1034F000BFFD00280DD0002304E099002D4A2E487E
:1035000088500133092BF8D92A4B2C4A5A6203B050
:1035100030BD2B4B00229A6700F0FEFA294B0122A6
:103520001A60274B5B6C012BFBD1274B03221A60DF
:10353000234B9B6B012BFBD1022400940533234AC0
:103540000121234800F054FA00940523214A012167
:10355000214800F04DFA214B009300220221042063
:10356000FFF73EFF1E4D00952B0000220121052094
:10357000FFF736FF104C00942300002200210720A3
:10358000FFF72EFF00942300002200210820FFF700
:1035900027FF0A4B00932300002200210920FFF798
:1035A0001FFF00952B00002200210620FFF718FFC7
:1035B000ADE7C046B8030020006CDC021BB700007A
:1035C000008000403CB0004030B00040002F6859FF
:1035D0000080024000389C1C00C00240001BB70065
:1035E000405973078000014BC0587047B803002052
:1035F000074B9B68103080001950BFF35F8FBFF3FB
:103600005F8F044B0021196082F310887047C04619
:1036100000ED00E0240100D010B5091A0439480873
:10362000090B05D14005400D044B184380B210BD75
:10363000034B044A8B210448FFF720FE00E0FFFF04
:10364000C86C0010C86E0010D86C001010B5091AB4
:1036500004394C08090B08D14905490D064A1143A4
:103660000180064B2343438010BD054B054A93213F
:103670000548FFF703FEC04600F0FFFF00F8FFFF1C
:10368000C86C00109C6E0010D86C001001238340A1
:10369000034A10681840431E9841C0B27047C046A4
:1036A00000E100E0002904D0034B1860034B1860D0
:1036B0007047034B1860FBE780E200E000E100E0A8
:1036C00080E100E010B5012383401800FFF7EAFF16
:1036D00010BD0000024B9B6810308000C05870473E
:1036E00000ED00E070B504000D00EFF3108672B637
:1036F0000C4B1B68002BFBD0BFF35F8F2000FFF744
:10370000E9FF094B984201D0A84205D132002900B7
:103710002000FFF76DFF70BD044B054A6E21054880
:10372000FFF7ACFD240100D0CD0100100C6D00109E
:10373000E46E0010D86C0010F0B5CE46474680B558
:1037400083B006000D00EFF3108872B6574B1B686C
:10375000002BFBD0BFF35F8F554B9A6834001034B9
:10376000A300D758534B9F4207D0AF4200D19BE0F4
:103770000197514BFB1A2F2B09D9424639003000D3
:10378000FFF736FF03B0C0BCB946B046F0BD30000D
:10379000FFF77CFF814600213000FFF793FFBFF366
:1037A0005F8FFCF760FD002801D0844219D101230E
:1037B000019C9C43414923003F4A9B1A5B4159436A
:1037C000090D49B20022A368AB4212D00622A256CC
:1037D000002A0DDB53009B189B002200364CE41896
:1037E000F1E71E21364B374AFF313748FFF746FDD8
:1037F0002200AB4251D106256557002D39DB6B0005
:103800005B199A002C4B9B189A68A260DA79E271D6
:1038100006229A56A2719B795BB2002B10DABD206A
:103820000002A0806B005B199B00234AD318274A33
:1038300011789971157049463000FFF743FF9CE7F6
:10384000201D6B005B199B001B4A9B181A1D9B884F
:10385000D90A1C2907D15B055B15023359005118A1
:10386000FFF7DAFEDDE71A4B1A4A99211648FFF7EF
:1038700005FD00280CD1002A08D0FF239371164BB8
:103880009380124B1A78A2711970D4E7094FF8E7A8
:10389000201D1249FFF7DAFECDE7A921104B094A96
:1038A00049000948FFF7EAFC024F66E7240100D00F
:1038B00000ED00E0CD010010E4010020AAAA000004
:1038C000206E0010B46E0010D86C00105A06002054
:1038D000086E0010D46E001000BDFFFF1E02002015
:1038E000446E001070B50400012606432D4BF31AF8
:1038F0002F2B28D8FCF7B7FC00282BD0EFF3108C27
:1039000072B6294B1B68002BFBD0BFF35F8F274D8E
:1039100022002449521A524155432D0D6DB2244BB9
:103920009B6880001B58B3421BD00022032A32D868
:1039300053009B189B001B49CB189B795BB2AB4291
:103940001FD00132F2E778211A4B1B4AFF311B4886
:10395000FFF794FCBD211A4B174A49001748FFF79F
:103960008DFC134B9B68174A1A50174B1A78A2719B
:103970001D70BFF35F8F0C4B00221A608CF3108810
:1039800070BD08005300991889004118FF268E71F8
:103990000E4A8A80E9E78C210D4B074AFF31074820
:1039A000FFF76CFCE4010020240100D0AAAA00006B
:1039B00000ED00E04C6E0010806E0010D86C00101E
:1039C000746E0010CD0100105A06002000BDFFFFEC
:1039D0003C6B00100022044B02E0044902C3013298
:1039E000072AFAD97047C04600E400E08080808052
:1039F000F0B5CE4600B504000E0091461F000C2025
:103A000001F09AF9050043011B1A9901C91AC9006E
:103A100009188901484601F08FF90200103A9823ED
:103A20005B009A4233D87B1E062B36D8069B013B9F
:103A3000062B32D8069B9F4235D34B461A09AA4221
:103A400037D33F04069B1D032F432368002B36DB2F
:103A5000234B9C4241D080225201224B1A60224BC0
:103A60001A60224B9B6811009943FAD12660A0602E
:103A7000231DC02292011A43212313602368002BC7
:103A8000FCDAE7600823136080BCB946F0BD184B30
:103A9000184A16211848FFF7F1FB184B154A19214F
:103AA0001548FFF7EBFB164B124A1F211248FFF790
:103AB000E5FB144B0F4A22210F48FFF7DFFB22687A
:103AC0003F231340B342C3D1A3681B051B0D8342A0
:103AD000BED1E368002FBBD1D6E780229201BCE7BC
:103AE00000C0024000E0004000F0004000C0004084
:103AF000006F0010D06F00101C6F0010506F00108E
:103B00009C6F0010B46F001080239B000343014A98
:103B1000D362704700800540064BAA2212011A604A
:103B20002F22DA60044B054A1A60024B5B68002BB7
:103B3000FBDA7047004002400060024000B0FA002B
:103B4000704710B5002802D00B684968984710BD2F
:103B50000100002007E083001B185B00501C086078
:103B60001078C01830380A681378303BDBB2092B64
:103B7000F1D97047F0B5DE4657464E464546E0B5AA
:103B800083B093461F000C9B9A460D9C0E9B994652
:103B90000F9B9B0703D0B8460F00060022E001925E
:103BA000A34688464E46B9460700B44207D2551C84
:103BB0004B4641462020B84701342A00F5E73D0036
:103BC0004F465C46019B9B46B1464646B846370089
:103BD0002E0007E0013C551C5346185D4346390052
:103BE000B0472A00002CF5D135003E0047460F9B18
:103BF0009B0707D4100003B0F0BCBB46B246A946F1
:103C0000A046F0BDB0464E46B9462F005D46531B58
:103C1000B342EFD2541C4B4641462020B847220005
:103C2000F5E7F0B5CE46474680B585B09446984650
:103C30000C9D0D9C0EAB1B789946109A119B129E01
:103C4000B7071CD4002B0CD0F7070AD54F46002F1E
:103C500002D10C37374204D0013B02E030272F5508
:103C60000134944201D21F2CF8D9F70707D59C42A2
:103C700005D21F2C03D830272F550134F5E7F7065E
:103C800015D5770505D4002C03D0944224D09C424E
:103C900022D00F9A102A2BD00F9A102A30D00F9AC8
:103CA000022A35D01F2C02D830222A5501341F2C6D
:103CB00005D84A46002A31D02D222A5501340396D0
:103CC00002930194009543466246FFF753FF05B007
:103CD000C0BCB946B046F0BD621E012C06D00F9F95
:103CE000102F01D01400D4E7023CD2E71400D0E733
:103CF000B206D1D41F2CCFD878222A550134D1E76F
:103D0000B206CCD51F2CCAD858222A550134C9E78F
:103D10001F2CC7D860322A550134C3E7720703D578
:103D20002B222A550134CAE73207C8D520222A554A
:103D30000134C4E7F0B5DE4657464E464546E0B589
:103D400093B081468A46089209931CAB10CB1B782E
:103D50009B461E9D219B9846002C03D11023424672
:103D60009A4390468023DB0046461E4042461A4254
:103D700012D0002C22D000260EE03033D9B2771CAE
:103D80000AAB99552900200000F0D6FFAC4216D3AB
:103D90001F2F14D83E0004002900200000F0CCFFA3
:103DA000CBB2092BE9D94246920605D54121C91863
:103DB000C9B20A39C9B2E2E76121F8E727004346F0
:103DC0000693209B05931F9B049303955B460293E8
:103DD00001970AAB0093099B089A51464846FFF7A2
:103DE00020FF13B0F0BCBB46B246A946A046F0BDCA
:103DF000F0B5DE4657464E464546E0B595B00890CC
:103E000009910A920B931E9E1F9C20AB1B789B4628
:103E1000229B9946239D269B9A463300234303D138
:103E2000103352469A4392468023DB0057461F4088
:103E300052461A4219D0330023432DD0002714E0F4
:103E40003033DAB27B1C98460CABDA554A462B006D
:103E50003000210000F0B2FFA5421FD819D0434620
:103E60001F2B1BD8474606000C004A462B0030008B
:103E7000210000F0A3FFD3B2092BE1D952469206EC
:103E800005D54122D218D2B20A3AD2B2DAE761227B
:103E9000F8E7B145E3D901E000239846534606937D
:103EA000259B0593249B04934B4603935B46029307
:103EB000434601930CAB00930B9B0A9A099908980F
:103EC000FFF7AFFE15B0F0BCBB46B246A946A04610
:103ED000F0BD0000F0B5DE4657464E464546E0B51B
:103EE00091B083468A460C9298461A9C08941B9D72
:103EF000099522002B002000290001F0EEF900288E
:103F000000D0E5E001225242D74B2000290001F009
:103F1000DFF9002800D0DBE001225242D34B200021
:103F2000290001F0BFF9002800D0D1E000220023D1
:103F3000089E3000099D290001F0B4F9002800D046
:103F4000DDE008980999069007918023DB001E9A0E
:103F50001A400D921E9A1A4201D106231C9306980C
:103F6000079904000D000A000600024300D1D1E0C9
:103F7000080D4005400DBE4CA44660440A03120BD8
:103F8000BC4B13431F0001F0BBF9BB4ABB4B01F014
:103F900046F9BB4ABB4B01F01BF904000D0000229F
:103FA000B94B3000390001F00AF9B84AB84B01F0BA
:103FB00036F902000B002000290001F009F901F098
:103FC000B7F9814601F09CF904000D00B14AB24BEB
:103FD00001F025F90022B14B01F0FAF801F0A8F93F
:103FE0000600AF4AAF4B2000290001F018F9040089
:103FF0000D00300001F084F9AB4AAC4B01F00FF931
:1040000002000B002000290001F0D9F804000D0087
:1040100002000B0001F003F90A900B91A44BF31876
:1040200000261F0522002B002000290001F0D0F8F7
:104030000E900F9122002B0000208021C90501F075
:10404000BEF804000D0000229A4B0A980B9901F06B
:10405000C8F80022984B01F0BBF802000B000A9848
:104060000B9901F0BEF80022944B01F0B1F8020068
:104070000B000A980B9901F0B4F802000B00200025
:10408000290001F0A5F802000B000E980F9901F02D
:10409000A8F80022774B01F09BF832003B0001F0BA
:1040A000BEF806000F0004000D00069A079B01F001
:1040B0000FF9002830D001235B429C46E1440022E6
:1040C0007D4B3000390001F08CF804000D0023E036
:1040D0001E9B04931D9B03931C9B0293089A099BB0
:1040E0000092019343460C9A5146584600F0FCF862
:1040F00011B0F0BCBB46B246A946A046F0BD0023B5
:10410000002406930794069680231B069C4665446C
:1041100007951AE7002399464B466333C62B1ED8F2
:1041200004261E9B1B0526D52B0023430FD0644A73
:10413000644B0698079901F0C3F8002879D0002253
:10414000614B0698079901F0ADF8002871D01C9BCF
:104150004B4506DD4A46981A431E1C9303E005268C
:10416000DFE700231C938023DB001E9A1A431E9274
:104170000026002399461D9B9E4264D29F1B02236A
:104180001E9A1A400A921E9A134202D0002E00D0A4
:1041900000274B46002B07D022002B0006980799DA
:1041A00001F01FF806900791002200230898099952
:1041B00001F078F8002848D1444B1E9A134004932C
:1041C00003971C9B0293069B079C00930194434614
:1041D0000C9A5146584600F087F8002E00D187E728
:1041E0001E9B9B063DD54525441C43460200514677
:1041F0002800D8474B46DA179B18534005220592F2
:10420000013E0496002203920A3202924A46D00FDF
:10421000019000934346220051465846FFF78AFD1D
:104220000A9B002B00D163E702005F460C9E1D9D98
:1042300054E01C9B002B9ED00D9B002B9BD01C9B05
:10424000013B1C9397E7002799E7069C079D2200F6
:10425000290080200006844661440B0006920793E3
:10426000AAE76525C0E7C046FFFFEF7FFFFFEFFF2E
:1042700001FCFFFF0000F03FFB799F501344D33F48
:10428000B3C8608B288AC63F0000F83F61436F6364
:10429000A787D23F71A379094F930A400000E03FFE
:1042A0001655B5BBB16B0240EF39FAFE422EE63F20
:1042B000FF03000000002C400000244000001840D4
:1042C0002D431CEBE2361A3F80842E41FFF7FFFF9F
:1042D000541C434651462020B8472200931BAB4252
:1042E000F6D3100004E7C046F0B5DE4657464E460A
:1042F0004546E0B595B00690079193469946209FB4
:104300001E9A1F9B1000190000F0E7FF002831D112
:1043100001225242BF4B1E981F9900F0C3FF002894
:1043200037D101225242BC4B1E981F9900F0D0FF9A
:1043300000283DD10022B94B1E981F9900F0C8FFFC
:10434000002850D10022B64B1E981F9900F0AAFFFA
:10435000002848D1002200231E981F9900F0A2FFD8
:10436000002850D100239846229B5B0500D4B6E07C
:10437000002458E0229B0393219B02930323019383
:10438000A84B00934B465A4607990698FFF7F2FB55
:104390000EE1229B0393219B029304230193A24BE2
:1043A00000934B465A4607990698FFF7E3FBFFE058
:1043B0000423229A1A4022990B4210D09B4B002AC8
:1043C0000FD0042222990391219902910192009326
:1043D0004B465A4607990698FFF7CCFBE8E0944B0A
:1043E000EDE70322EEE7229B0493219B03930297C0
:1043F0001E9B1F9C009301944B465A4607990698B2
:10440000FFF768FDD4E01E9A1F9B0020002100F0FA
:10441000D6FE1E901F9101239846A5E70CAB3022D3
:104420001A55013F01341F2C01D8092FF6D81E98C8
:104430001F9900F07DFF050000F062FF02000B00F5
:104440001E981F9900F0BBFEFA007A4B9B181A6861
:104450005B680A920B9300F0E2FE0890099100F06D
:104460008BFF060000F048FF02000B000898099936
:1044700000F0A5FE0890099100226F4B00F028FF84
:1044800000282ED00136300000F036FF02000B006D
:104490000A980B9900F00CFF002801D00135002686
:1044A000002F2CD1280000F02BFF02000B001E98DB
:1044B0001F9900F084FE06000F0000225E4B00F002
:1044C000F1FE002846D100225B4B3000390000F09D
:1044D000FFFE00283ED1EB073CD501353AE0062728
:1044E00046E70022544B0898099900F0DBFE0028AB
:1044F000D6D1002E01D0F307D2D50136D0E7AA4697
:104500001F2C11D8013F0A21300000F015FC651C5A
:1045100030310CAB19550A21300000F00DFC092E8A
:104520000ED906002C00EBE755461F2C0CD87B1E3D
:10453000002F09D00CAA302111551F000134F4E7D7
:104540002B0055461C00F0E71F2C03D80CAB2E2285
:104550001A5501341F2C10D80A21280000F0C4FB82
:10456000661C30310CAB19550A21280000F0BCFB49
:10457000051E01D03400EDE734000323229A1340D6
:10458000012B1CD01F2C06D84346002B32D00CAB7D
:104590002D221A550134229B0393219B02930194EF
:1045A0000CAB00934B465A4607990698FFF7E2FA80
:1045B00015B0F0BCBB46B246A946A046F0BD219B53
:1045C000002B13D04346002B02D10C3313420FD0E3
:1045D000219B013B2193190003E00CAB30221A55BB
:1045E00001348C42CED21F2CF7D9CBE72199F8E7C2
:1045F0002199F6E7229B5B0704D50CAB2B221A55B9
:104600000134C8E7229B1B07C5D50CAB20221A55E5
:104610000134C0E7FFFFEFFFFFFFEF7F65CDCD4126
:1046200065CDCDC1E86F0010EC6F0010E06F001099
:10463000DC6F0010D87100100000E03FF0B5DE46DE
:1046400057464E464546E0B593B082468B46904667
:104650001193002900D1EBE200275546119B1878F1
:10466000002800D1E7E2252809D07C1C43463A0007
:104670005946A847119B013311932700EEE70133F8
:1046800011930024119A11780B00203BD8B2102806
:1046900003D88300D048C3589F460B00303BDBB2A1
:1046A000092B2CD92A292FD000230A93119B1A7881
:1046B0002E2A39D000239A46119A1378683BD9B232
:1046C000122976D88B00C549CB589F4601231C433D
:1046D00001321192D6E702231C4301321192D1E735
:1046E00004231C4301321192CCE708231C430132FE
:1046F0001192C7E710231C4301321192C2E711A89F
:10470000FFF726FA0A90D1E71C9B1A1D1C92186825
:10471000002804DB0A90119B01331193C6E70223A2
:104720001C4343420A93F6E78022D20014435A1CEA
:1047300011925A781300303BDBB2092B04D92A2A94
:1047400007D000239A46B7E711A8FFF701FA82467F
:10475000B2E71C9B1A1D1C921868002804DB8246D5
:10476000119B01331193A7E70020F8E780235B003A
:104770002343511C119152786C2A01D01C0018E07F
:10478000C0239B001C430131119112E0802323437D
:10479000511C11915278682A01D01C0009E0C023F5
:1047A0001C430131119104E080235B001C43013262
:1047B0001192119B18780300253BDAB2532A00D9D5
:1047C0002CE29300864AD3589F4680239B001C43CB
:1047D00001321192EDE780235B001C4301321192FC
:1047E000E7E7782809D0582838D06F2838D06228D1
:1047F00038D010239C430A2600E01026582833D0D6
:10480000692803D0642801D00C229443630501D5A4
:104810000122944369282AD0642828D0A30500D512
:104820009FE0E30500D5B8E0630600D4CAE01C9A17
:10483000111D1C911168FF220A4005940A9B0493E4
:1048400053460393029600230193009243463A0095
:1048500059462800FFF76EFA070027E01026CDE73B
:104860000826CBE70226C9E720221443C8E7A305A0
:1048700020D4E30550D4630666D51C9A111D1C9103
:104880001168FF220A40D317D118594005940A9B9A
:104890000493534603930296D20F0192009143462C
:1048A0003A0059462800FFF745FA0700119B0133EB
:1048B0001193D3E61C9BDA1D07218A4311000831AE
:1048C0001C91116853689C46DB170C930D930C9A4E
:1048D0000D9B100048400E90624653400F930E9877
:1048E0000F990C9A0D9B801A99410E900F91089484
:1048F0000A9B079353460693049600230593634649
:10490000DA0F02920090019143463A00594628007E
:10491000FFF76EFA0700C9E71C9A111D1C91126877
:10492000D317D118594005940A9B04935346039317
:104930000296D20F0192009143463A005946280050
:10494000FFF7F8F90700B1E7230605D51C9A111DFA
:104950001C910023D25E96E71C9A111D1C911268CF
:1049600091E71C9BDA1D07218A43110008311C9135
:1049700008940A9B079353460693049600230593D5
:104980000293136854680093019443463A005946D1
:104990002800FFF72DFA070088E71C9A111D1C91CB
:1049A00005940A9B049353460393029600230193B4
:1049B0001368009343463A0059462800FFF7BAF9B6
:1049C000070073E723060DD51C9A111D1C91126870
:1049D0001204120C31E7C046F46F0010387000105A
:1049E000847000101C9A111D1C91126825E746283E
:1049F0001AD01C9B0733072293431A0008321C92DB
:104A000004940A9A0392524602925C681B680093CF
:104A1000019443463A0059462800FFF765FC070019
:104A2000119B0133119319E620231C43E1E767280A
:104A300001D0472802D180231B011C43452801D007
:104A4000472801D120231C431C9B07330722934393
:104A50001A0008321C9204940A9A03925246029257
:104A60005C681B680093019443463A00594628004D
:104A7000FFF730FA0700119B01331193EEE5022393
:104A80001A002240924623421FD001241C9B1A1D6B
:104A90001C927A1C9146187843463A005946A8471A
:104AA0005346002B16D1119B013311934F46D5E588
:104AB000561C434659462020B847230032005C1C50
:104AC0009D42F5D83D001700E0E701233A002F0092
:104AD0000A9DF4E74A46A9460A9D06E0571C43464C
:104AE00059462020C84734003A00661CA542F5D834
:104AF0004D469146D7E71C9B1A1D1C921B68994690
:104B00005346002B00D1013B4E4601E00136130015
:104B10003278002A02D05A1E002BF7D14B46F21AE7
:104B200010928023DB0026001E401C4203D0524519
:104B300001D95346109302231A0022400B922342BC
:104B400005D03A0037004C46A946554620E03A00C9
:104B5000109B5F46B3462E0006E0551C43463900C5
:104B60002020B04723002A005C1C0A999942F4D8FF
:104B700035005E46BB46109437004C46A946554664
:104B800006E01D000134561C43465946C847320012
:104B90002078002804D0002FF4D06B1E002DF0D117
:104BA00017004D460B9B002B03D1119B0133119332
:104BB00054E50A9F109B06E0561C434659462020A8
:104BC000A847230032005C1C9F42F5D81700ECE791
:104BD00021231C431C9B1A1D1C921B6800930594E7
:104BE0000823049353460393102302930023019355
:104BF00043463A0059462800FFF79CF80700119BEE
:104C0000013311932AE57C1C43463A00594625207E
:104C1000A847119B0133119327001FE57C1C4346D5
:104C20003A005946A847119B01331193270015E517
:104C30000A4B9A4610E5AA46474502D343465A1EF8
:104C400000E03A00434659460020D047380013B0F0
:104C5000F0BCBB46B246A946A046F0BD413B0010A1
:104C600000B585B0029003910121009313004A42E0
:104C700002A90248FFF7E2FC05B000BD433B00106B
:104C800001480421014B184730020020B14C0010AC
:104C900010B5010018231B8814221088984710BDF6
:104CA00010B5010018231B8816221088984710BDE4
:104CB000F0B5C64600B507000E0000250123984652
:104CC00000E00135B5420AD2AC003C192068FFF77C
:104CD000DFFF20600028F4D100239846F1E740462A
:104CE00080BCB846F0BD0000124A936F9B0815D2F5
:104CF0009066D166002905D0FFE7FFE7FFE7516F17
:104D0000106F704704B580210906C2175140002872
:104D100000D0C84301F0D8FB002104BDF0B5146EEB
:104D2000556E576F166FFFF7E3FF146655665767AA
:104D30001667F0BD000000D0114A936F9B0813D294
:104D400010665166002905D0FFE7FFE7FFE7516FC6
:104D5000106F704704B5002801D00020C04301F057
:104D6000B3FB002104BDC046F0B5146E556E576FFD
:104D7000166FFFF7E5FF1466556657671667F0BDB7
:104D8000000000D094464E4A926F9208624601D2CB
:104D900030E0C046F0B54A4EB56F6D08FCD3346EB6
:104DA000756E776F366F00F025F89446444A1466A6
:104DB0005566576716676246F0BDC0469446404A3E
:104DC000926F9208624601D258E0C046F0B53C4E60
:104DD000B56F6D08FCD3346E756E776F366F00F06B
:104DE0004DF89446364A146655665767166762460C
:104DF000F0BDC046002B24DB11D000293EDA00B5FF
:104E0000C943404200D1013100F038F8C943404263
:104E100000D10131DB43524200D1013300BD002AF1
:104E2000EBD1002801D1002905D00020C90FC90706
:104E300001D1C043410800B501F03EFB0022002330
:104E400000BD00B500290ADBDB43524200D101332B
:104E500000F014F8C943404200D1013100BDC943FC
:104E6000404200D10131DB43524200D1013300F016
:104E700005F8DB43524200D1013300BD002923D1A4
:104E8000002B18D1002A0CD0BC460D4F38667A662C
:104E900000210023FFE7FFE7FFE77A6F386F6746DF
:104EA0007047002801D00748010000B501F004FB5D
:104EB0000022002300BD02000B00002000217047EB
:104EC000000000D0FFFFFFFF002B00D0BFE0130C5D
:104ED00028D1002AE7D080B4114F39667A66FFE7FF
:104EE000FFE730B4040C7B6F396F1B0423433B6630
:104EF0007A66FFE7FFE7FFE7C04684B27B6F3D6F4E
:104F00001B0423433B667A66FFE7FFE7C0460023A6
:104F10002C042D0C7A6F386F00196941B0BC7047B2
:104F2000000000D0F0B594460025140E01D1120205
:104F30000835140F01D112010435940F01D19200EC
:104F40000235D40F01D152000135D40B0134254F65
:104F50007C66254C3C660E0C93B2FFE7FFE7FFE74B
:104F60003C6F6643360C7703BE467343DF0B5B042E
:104F7000C01AB941130C7343DB18C91ACE08664333
:104F8000360CB64493B273431F0F1B01C01AB941CC
:104F9000130C73431F0B1B05C01AB941860D8F02FA
:104FA0003E436643360C092D24DB520A7243801AB5
:104FB0007703460A6643360C16235B1BDE40DF4050
:104FC000BF1964466643821B7046043506330100F0
:104FD000D940A840C01900D30131A24206D2002313
:104FE000F0BD0000000000D0FFFFFFFF121B0130EA
:104FF000F3D3F1E709277F1BFE406446A2B2724358
:10500000801A00D20139220C7243130C1204821A46
:1050100099410B007046043513370100F940A84050
:10502000801900D30131002B02D1A2420AD2F0BD77
:10503000013000D30131121BFAD2013BF8D1A24258
:1050400000D2F0BD013000D30131121BF7E7F0B5FB
:105050001C0C00D080E00CB400251C0A04D11B02FB
:10506000160E3343120208351C0B04D11B01160F18
:105070003343120104359C0B04D19B00960F33433C
:1050800092000235DC0B02D192185B4101351C0005
:10509000971864410134464F7C66464C3C660E0CC2
:1050A000FFE7FFE7FFE7C0463C6F6643360C770338
:1050B000BE4697B27743C01B00D20139C01B00D255
:1050C00001399FB27743C91BC91B170C77437E0474
:1050D000FF0B801BB941CE086643360C0C2D33DB29
:1050E000B644120B1F053A431B0B97B27743C01B04
:1050F00000D201399FB27743C91B170C77433E0496
:105100003F0C801BB941860D8F023E436643292721
:105110007F1BFE400C3D7746AF40BF1930BCA2B2AA
:10512000ABB272437343801A9941220C7243130C41
:105130001204801A994102000B000137001BA9419B
:10514000F9D2781E0021F0BD0C277F1BFE40774668
:105150007F0BAF40FF19E0E700245D1C07D0144F20
:105160007D663966FFE7FFE7FFE7FFE73C6F95B233
:105170009EB265436643401BB141150C1E0C65434E
:10518000664336042F0C3E432D04401BB141994227
:1051900004D202000B0020000021F0BD01D190429A
:1051A000F7D3801A994101349942F2D3F6E700000F
:1051B000000000D0FFFFFFFF48404140484018B4C6
:1051C0001B4B5B68FC46019308BD04DFAB54001029
:1051D00018B4174B1B68FC46019308BD00DFB5549B
:1051E00000109446134A926F920809D2624618B48E
:1051F0000F4BDB68FC46019308BD0CDF6D570010B8
:105200000C4AF0B5146E556E576F166F6246FFF775
:10521000EEFF084A1466556657671667F0BD18B466
:10522000034B9B68FC46019308BD08DF1156001034
:1052300038040020000000D0FFB5504042405040EC
:1052400059404B40594000E0FFB5154F4C00640DEC
:1052500003D0BC4204D10C0314D80020090D090569
:105260005C00640D03D0BC4204D11C030AD80022A8
:105270001B0D1B0501264B4009D44B4003D58B4227
:1052800000D18242FFBD9942FCD19042FFBD0B4349
:10529000DB1803431343F5D0C9434918FFBD000091
:1052A000FF07000000B5FFF7CFFF804100BDC046FB
:1052B00000B5FFF7C9FF01D9002000BD012000BDE6
:1052C00000B5FFF7B9FF01D9002000BD012000BDE6
:1052D00000B5FFF7B1FF804100BD012040054A0045
:1052E000121804D85A00121801D800207047012063
:1052F00070470020704700000021002805D170474A
:10530000C1174840401AFAD0C90713B5064B1B68AD
:1053100098470CBC441CA2401005120B0349091B02
:1053200009051943114310BD380500201F04000072
:1053300010B54C00620D8023D218DB00D21A5B0539
:105340007E2A10DD9E3A13DACC1709034908194367
:105350005242D140640001341532202A05DAD0408F
:105360000843604310BD002010BD0846604310BDD7
:10537000C80FC018013810BD18B4044B5B6AFC4656
:10538000019308BD24DF1D590010000038040020DF
:1053900018B4044BDB6FFC46019308BD7CDF9D59BC
:1053A000001000003804002070B513231C78012C75
:1053B00014D0012C14DC022C02DC1F4A1F4B9A640F
:1053C0001F48FFF765FC1F4B186070BD99001A4815
:1053D0001A4A885001331F2BF8D9EAE70023FAE76D
:1053E0001948FFF75DFC05001848FFF759FC023823
:1053F00003789B007F2B19DD802229000F4800F0E5
:1054000017FE022CD7D1124B1A88B5231B029A42E1
:1054100009D1104B1A88104B9A4204D10F4B1A88AD
:105420000F4B9A42C7D00020FDF7C2FF0D4B0E4A2A
:1054300032210E48FDF722FF71540010380400207D
:105440004C33000038050020534400005346000050
:1054500054380000D8380000494600009C3800004D
:105460005946000028720010C8720010887200109F
:1054700007B56046002800D100BE01880A0A023044
:10548000DF2AFAD1C9B2820804D302884088000416
:10549000104300E00068024A5050039007BD00002E
:1054A000380400200FB403BC0CBCF0B50124E407A1
:1054B000634000E0F0B50C0DCF0F661E3605891B6A
:1054C000640503D3C943404200D30131640D03D0C6
:1054D000661CF60A07D0E41B00207F00791C8907B0
:1054E0008912803C24031D0DDF0F6E1E36059B1BA9
:1054F0006D0503D3DB43524200D301336D0D03D05E
:105500006E1CF60A07D0ED1B00227F007B1C9B0758
:105510009B12803D2D032F1B661B58D4A446202EC2
:1055200046DA20371400BC401D00BD40F240334134
:105530002A4380185941CB0F05D0C943C0430022EC
:1055400064425041514162464D0D28D10D0D07D1A5
:1055500000281FD0241940414941013A0D0DF9D0CE
:10556000640006D3013000D30131002C01D1400882
:105570004000013A0BD4941CE40A04D112051144F2
:10558000DB071944F0BDD907204B194300E0D907C8
:105590000020F0BD0029DDD1002CDBD1F0BD0132AF
:1055A000C6074008CD0728434908002EE1D0D9E7B7
:1055B0003C2E29DA203E40371400BC4000D00124A4
:1055C000F24014431A00BB401C43D317ACE7AC466F
:1055D000202F08DA20360400B4400D00B540F84012
:1055E00039412843A5E73C2F0CDA203F4036040020
:1055F000B44000D00124F84004430800B1400C43FB
:10560000C117EAE710001900002494E70000F07FBA
:10561000F0B50C0D661E3605891BE60A6405640D9F
:1056200002D0651CED0A04D0002001210905803C50
:105630002403A4461C0D671E3F05DB1BE70A640517
:10564000640D02D0651CED0A04D0002201231B0565
:10565000803C24037740644497B484B296B2744388
:10566000070C7E43150C6F4380B26843361802D393
:10567000012000043F183004350C00197D41844698
:1056800088B29AB250430C0C62431F0C7C438EB21A
:105690007E43921902D301263604A4191604170C6E
:1056A0003618674101BC81B29AB25143040C62437F
:1056B0001B0C5C4380B25843121802D30120000433
:1056C00024181004130C401863412D185E4100206B
:1056D000474106BC88B293B258430C0C6343120C8A
:1056E000544389B251435B1802D301210904641861
:1056F00019041A0C091862416D18564100204741DF
:1057000018BCF902720D1143F0026A0D1043ED024C
:105710000A0D03D16D1940414941013B124E9B1BBB
:105720007600B3420ED26D0007D3013000267141DE
:105730006646354301D1400840001B05C918E407FF
:105740002144F0BD0BDA013306D1013004D101311F
:105750004F0D01D04908F2E7E1070020F0BD013606
:1057600031050020EBE70000FF030000F0B51C0D41
:10577000671E3F05DB1BE70A6405640D02D0661C4B
:10578000F60A04D0002201231B05803C2403D02507
:105790002D060026F6432E661E096E66CE0FF619FC
:1057A000B44649004F0D02D07E1CF60A03D00020FB
:1057B0000021403F3F033E1BB600B444013F7F053C
:1057C000C91B49082E6F013676089C02950D2543AA
:1057D0007543ED137543AD1301356D10F603761B5C
:1057E0000CB4CC02450D2C43A2B2B3B25A43270CE1
:1057F0007B43350C6F43A4B26C431B1902D30124C5
:1058000024043F191C041D0CA4187D4124196D416A
:10581000009A91B2ACB26143170C7C432B0C5F43EE
:1058200092B25A43A41802D301221204BF182204D0
:10583000230C52187B41019C6C431B19520ED90159
:105840000A434401A01A81B2B2B2514303145A432D
:10585000360C734387B27743D617D21900277E419F
:1058600036049B191704160C7F185E417316ED1849
:10587000F301002680337541A90F06D16400690A3F
:10588000E8055B0A184309D22FE0042294448033D0
:105890007541A90AA8059B0A184326D340414941EE
:1058A0002404009A019B0D005543641B4343E41AF2
:1058B00095B286B27543170C7E43030C5F4392B2D8
:1058C0005A43B61802D301221204BF183204330C13
:1058D00052197B4152429C41002C02D400220130DB
:1058E00051414008CA071043490802B06246D70731
:1058F0009210084BD218084B9A4203D2120589180D
:10590000C919F0BD0020002A01DC3900F0BD0133C7
:105910001905F5E7FD030000FE070000002200B5B1
:10592000203200F004F8080000BD000000220B1532
:105930000AD410B5944600F05FF81414013400DA6C
:105940000021CB17144C20470020002170476244EF
:10595000343A0CD40C2A07DA0400914090405242A9
:105960002032D440214310BDD843D94310BD20324A
:1059700007D40C469440524220321141D04020437B
:1059800010BD0800C917203203D452422032104102
:1059900010BD1800190010BD4F5900104A00520DDB
:1059A000144BD21A13DDFF2A1EDAD205CB0FDB0708
:1059B0001A43C300400F0903490A084310435B0020
:1059C00001D301D0013070474308FBD2704702D0A9
:1059D000C80FC00770470A0312130132F8D1420FF3
:1059E000072AF5D1012200E0FF22C80F000280182B
:1059F000C0057047800300000A0DCC0F531E1B0525
:105A0000C91A520503D3C943404200D30131520D94
:105A100003D0531CDB0A07D0121B00206400611C5A
:105A200089078912803A1203014BD21A704700008D
:105A3000FF03000051434343C9188C46110C83B245
:105A40004B4310B4040C614392B280B250436243A2
:105A50001C041B0C001910BC59411304120CC01873
:105A60005141614470470000484041404840002394
:105A70009C46114B5B68184700239C460E4B1B68E5
:105A800018470E4A936F9B0804D200239C460A4B8A
:105A9000DB681847F0B5146E556E576F166FFFF739
:105AA000F4FF064A1466556657671667F0BD002373
:105AB0009C46014B9B6818473C050020000000D025
:105AC00007B548404140484001E0C04607B54200A4
:105AD000120E03D0FF2A03D1420218D8C00DC00510
